:020000040800F2
:1000000000C00020A1220008C5190008C719000877
:10001000C9190008CB190008CD190008000000001C
:10002000000000000000000000000000CF190008E0
:10003000D119000800000000D3190008D5190008E4
:10004000E9220008E9220008E9220008E922000864
:10005000E9220008E9220008E9220008E922000854
:10006000E9220008E9220008E9220008E922000844
:10007000E9220008E9220008DD190008E922000849
:10008000E9220008E9220008E9220008E922000824
:10009000E9220008E9220008E9220008E922000814
:1000A000E9220008E9220008E9220008E922000804
:1000B000E9220008E9220008E9220008E9220008F4
:1000C000E9220008E9220008E9220008E9220008E4
:1000D000E9220008ED190008FD190008E9220008CE
:1000E000E9220008E9220008E9220008E9220008C4
:1000F000E9220008E9220008E9220008E9220008B4
:10010000E9220008E9220008E9220008E9220008A3
:10011000E9220008E9220008E9220008E922000893
:10012000E9220008E9220008E9220008E922000883
:1001300000000000000000000000000000000000BF
:1001400000000000000000000000000000000000AF
:10015000000000000000000000000000000000009F
:10016000000000000000000000000000000000008F
:10017000000000000000000000000000000000007F
:10018000000000000000000000000000000000006F
:10019000000000000000000000000000000000005F
:1001A000000000000000000000000000000000004F
:1001B000000000000000000000000000000000003F
:1001C000000000000000000000000000000000002F
:1001D000000000000000000000000000000000001F
:0401E0005FF8E0F1F3
:1001E80010B5054C237833B9044B13B10448AFF369
:1001F80000800123237010BDBC090020000000000E
:10020800A4E2000808B5034B1BB103490348AFF348
:10021800008008BD00000000C0090020A4E200081A
:1002280081F0004102E000BF83F0004330B54FEA9F
:1002380041044FEA430594EA050F08BF90EA020F0C
:100248001FBF54EA000C55EA020C7FEA645C7FEA9F
:10025800655C00F0E2804FEA5454D4EB5555B8BFC2
:100268006D420CDD2C4480EA020281EA030382EA33
:10027800000083EA010180EA020281EA0303362DC5
:1002880088BF30BD11F0004F4FEA01314FF4801C98
:100298004CEA113102D0404261EB410113F0004FAA
:1002A8004FEA03334CEA133302D0524263EB430361
:1002B80094EA050F00F0A780A4F10104D5F1200EFF
:1002C8000DDB02FA0EFC22FA05F2801841F100015A
:1002D80003FA0EF2801843FA05F359410EE0A5F12E
:1002E80020050EF1200E012A03FA0EFC28BF4CF05F
:1002F800020C43FA05F3C01851EBE37101F0004515
:1003080007D54FF0000EDCF1000C7EEB00006EEB21
:100318000101B1F5801F1BD3B1F5001F0CD34908AB
:100328005FEA30004FEA3C0C04F101044FEA445202
:1003380012F5800F80F09A80BCF1004F08BF5FEA89
:10034800500C50F1000041EB045141EA050130BD69
:100358005FEA4C0C404141EB0101013C28BFB1F57B
:10036800801FE9D291F0000F04BF01460020B1FAC6
:1003780081F308BF2033A3F10B03B3F120020CDA99
:100388000C3208DD02F1140CC2F10C0201FA0CF077
:1003980021FA02F10CE002F11402D8BFC2F1200CDC
:1003A80001FA02F120FA0CFCDCBF41EA0C01904092
:1003B800E41AA2BF01EB0451294330BD6FEA0404DB
:1003C8001F3C1CDA0C340EDC04F11404C4F12002C6
:1003D80020FA04F001FA02F340EA030021FA04F3D8
:1003E80045EA030130BDC4F10C04C4F1200220FA2F
:1003F80002F001FA04F340EA0300294630BD21FA6D
:1004080004F0294630BD94F0000F83F4801306BF32
:1004180081F480110134013D4EE77FEA645C18BF26
:100428007FEA655C29D094EA050F08BF90EA020FBD
:1004380005D054EA000C04BF1946104630BD91EAB5
:10044800030F1EBF0021002030BD5FEA545C05D1B8
:100458004000494128BF41F0004130BD14F58004F7
:100468003CBF01F5801130BD01F0004545F0FE416B
:1004780041F470014FF0000030BD7FEA645C1ABFA0
:10048800194610467FEA655C1CBF0B46024650EAD7
:10049800013406BF52EA033591EA030F41F4002103
:1004A80030BD00BF90F0000F04BF0021704730B589
:1004B8004FF4806404F132044FF000054FF000015E
:1004C80050E700BF90F0000F04BF0021704730B51F
:1004D8004FF4806404F1320410F0004548BF4042F4
:1004E8004FF000013EE700BF42004FEAE2014FEA49
:1004F80031014FEA02701FBF12F07F4393F07F4F24
:1005080081F06051704732F07F4208BF704793F026
:100518007F4F04BF41F40021704730B54FF4607439
:1005280001F0004521F000411CE700BF50EA01023C
:1005380008BF704730B54FF000050AE050EA0102E5
:1005480008BF704730B511F0004502D5404261EB55
:1005580041014FF4806404F132045FEA915C3FF496
:10056800D8AE4FF003025FEADC0C18BF03325FEA33
:10057800DC0C18BF033202EBDC02C2F1200300FAE4
:1005880003FC20FA02F001FA03FE40EA0E0021FA09
:1005980002F11444BDE600BF4FEA4102B2F1E04364
:1005A80024BFB3F5001CDCF1FE5C0DD901F0004C52
:1005B8004FEAC0024CEA5070B2F1004F40EB8300A2
:1005C80008BF20F00100704711F0804F21D113F1CE
:1005D8003872BCBF01F00040704741F480114FEA07
:1005E8005252C2F11802C2F1200C10FA0CF320FA90
:1005F80002F018BF40F001004FEAC1234FEAD323AD
:1006080003FA0CFC40EA0C0023FA02F34FEA430316
:10061800CCE77FEA625307D150EA01331EBF4FF09F
:10062800FE4040F44000704701F0004040F0FE40BA
:1006380040F40000704700BF4FF0FF0C1CEAD05296
:100648001EBF1CEAD15392EA0C0F93EA0C0F6FD02D
:100658001A4480EA010C400218BF5FEA41211ED00B
:100668004FF0006343EA501043EA5111A0FB0131F7
:100678000CF00040B1F5000F3EBF490041EAD371CC
:100688005B0040EA010062F17F02FD2A1DD8B3F148
:10069800004F40EBC25008BF20F00100704790F0B7
:1006A800000F0CF0004C08BF49024CEA502040EA09
:1006B80051207F3AC2BFD2F1FF0340EAC2507047CF
:1006C80040F400004FF00003013A5DDC12F1190F0D
:1006D800DCBF00F000407047C2F10002410021FA7F
:1006E80002F1C2F1200200FA02FC5FEA310040F197
:1006F800000053EA4C0308BF20EADC70704792F010
:10070800000F00F0004C02BF400010F4000F013A47
:10071800F9D040EA0C0093F0000F01F0004C02BF42
:10072800490011F4000F013BF9D041EA0C018FE7B1
:100738000CEAD15392EA0C0F18BF93EA0C0F0AD0B7
:1007480030F0004C18BF31F0004CD8D180EA0100DD
:1007580000F00040704790F0000F17BF90F0004F76
:10076800084691F0000F91F0004F14D092EA0C0F58
:1007780001D142020FD193EA0C0F03D14B0218BFEB
:10078800084608D180EA010000F0004040F0FE4031
:1007980040F40000704740F0FE4040F440007047CD
:1007A8004FF0FF0C1CEAD0521EBF1CEAD15392EA4C
:1007B8000C0F93EA0C0F69D0A2EB030280EA010C3C
:1007C80049024FEA402037D04FF0805343EA1111D5
:1007D80043EA10130CF000408B4238BF5B0042F133
:1007E8007D024FF4000C8B4224BF5B1A40EA0C00D8
:1007F800B3EB510F24BFA3EB510340EA5C00B3EB0A
:10080800910F24BFA3EB910340EA9C00B3EBD10FF7
:1008180024BFA3EBD10340EADC001B0118BF5FEA49
:100828001C1CE0D1FD2A3FF650AF8B4240EBC25072
:1008380008BF20F0010070470CF0004C4CEA502033
:100848007F32C2BFD2F1FF0340EAC250704740F482
:1008580000004FF00003013A37E792F0000F00F074
:10086800004C02BF400010F4000F013AF9D040EAF2
:100878000C0093F0000F01F0004C02BF490011F486
:10088800000F013BF9D041EA0C0195E70CEAD1537E
:1008980092EA0C0F08D142027FF47DAF93EA0C0F65
:1008A8007FF470AF084676E793EA0C0F04D14B0249
:1008B8003FF44CAF08466EE730F0004C18BF31F0FB
:1008C800004CCAD130F000427FF45CAF31F00043F5
:1008D8007FF43CAF5FE700BF4FEA4002B2F1FE4F42
:1008E8000FD34FF09E03B3EB12620DD94FEA0023EA
:1008F80043F0004310F0004F23FA02F018BF4042C3
:1009080070474FF00000704712F1610F01D14202A9
:1009180005D110F0004008BF6FF0004070474FF05D
:1009280000007047844641EA000313F0030349D1ED
:10093800403A23D30B6803604B6843608B6883603D
:10094800CB68C3600B6903614B6943618B69836141
:10095800CB69C3610B6A03624B6A43628B6A836229
:10096800CB6AC3620B6B03634B6B43638B6B836311
:10097800CB6BC36340304031403ADBD230320BD3CB
:100988000B6803604B6843608B688360CB68C36007
:1009980010301031103AF3D20C3205D351F8043B21
:1009A80040F8043B043AF9D2043208D0D2071CBFFD
:1009B80011F8013B00F8013B01D30B880380604626
:1009C800704700BF082A13D38B07B1D010F0030378
:1009D800AED0C3F10403D21ADB071CBF11F8013BE8
:1009E80000F8013BA4D331F8023B20F8023B9FE713
:1009F800043AD9D3013A11F8013B00F8013BF9D286
:100A08000B7803704B7843708B788370604670471F
:100A180070B54FF0FF0C4CF4E06C1CEA11541DBF8C
:100A28001CEA135594EA0C0F95EA0C0F00F0DEF857
:100A38002C4481EA030621EA4C5123EA4C5350EA3C
:100A4800013518BF52EA033541F4801143F480138D
:100A580038D0A0FB02CE4FF00005E1FB02E506F01E
:100A68000042E0FB03E54FF00006E1FB03569CF073
:100A7800000F18BF4EF0010EA4F1FF04B6F5007F79
:100A880064F5407404D25FEA4E0E6D4146EB0606EB
:100A980042EAC62141EA55514FEAC52040EA5E5074
:100AA8004FEACE2EB4F1FD0C88BFBCF5E06F1ED81E
:100AB800BEF1004F08BF5FEA500E50F1000041EB55
:100AC800045170BD06F0004646EA010140EA020002
:100AD80081EA0301B4EB5C04C2BFD4EB0C0541EA24
:100AE800045170BD41F480114FF0000E013C00F339
:100AF800AB8014F1360FDEBF002001F0004170BD5D
:100B0800C4F10004203C35DA0C341BDC04F1140475
:100B1800C4F1200500FA05F320FA04F001FA05F201
:100B280040EA020001F0004221F0004110EBD370CE
:100B380021FA04F642EB06015EEA430E08BF20EAFA
:100B4800D37070BDC4F10C04C4F1200500FA04F39D
:100B580020FA05F001FA04F240EA020001F000412F
:100B680010EBD37041F100015EEA430E08BF20EAA2
:100B7800D37070BDC4F1200500FA05F24EEA020EEA
:100B880020FA04F301FA05F243EA020321FA04F019
:100B980001F0004121FA04F220EA020000EBD370D0
:100BA8005EEA430E08BF20EAD37070BD94F0000FD0
:100BB8000FD101F00046400041EB010111F4801F04
:100BC80008BF013CF7D041EA060195F0000F18BFB5
:100BD800704703F00046520043EB030313F4801FF1
:100BE80008BF013DF7D043EA0603704794EA0C0FAB
:100BF8000CEA135518BF95EA0C0F0CD050EA4106C1
:100C080018BF52EA4306D1D181EA030101F000413D
:100C18004FF0000070BD50EA410606BF1046194665
:100C280052EA430619D094EA0C0F02D150EA013671
:100C380013D195EA0C0F05D152EA03361CBF1046B2
:100C480019460AD181EA030101F0004141F0FE4151
:100C580041F470014FF0000070BD41F0FE4141F4D5
:100C6800780170BD70B54FF0FF0C4CF4E06C1CEAD5
:100C780011541DBF1CEA135594EA0C0F95EA0C0F8A
:100C880000F0A7F8A4EB050481EA030E52EA033545
:100C98004FEA013100F088804FEA03334FF0805566
:100CA80045EA131343EA12634FEA022245EA111593
:100CB80045EA10654FEA00260EF000419D4208BF44
:100CC800964244F1FD0404F5407402D25B084FEAF1
:100CD8003202B61A65EB03055B084FEA32024FF49D
:100CE80080104FF4002CB6EB020E75EB030E22BFFA
:100CF800B61A754640EA0C005B084FEA3202B6EBBA
:100D0800020E75EB030E22BFB61A754640EA5C0068
:100D18005B084FEA3202B6EB020E75EB030E22BFF8
:100D2800B61A754640EA9C005B084FEA3202B6EBF9
:100D3800020E75EB030E22BFB61A754640EADC00B8
:100D480055EA060E18D04FEA051545EA16754FEA1A
:100D580006164FEAC30343EA52734FEAC2025FEA38
:100D68001C1CC0D111F4801F0BD141EA00014FF0C7
:100D780000004FF0004CB6E711F4801F04BF014398
:100D88000020B4F1FD0C88BFBCF5E06F3FF6AFAEB4
:100D9800B5EB030C04BFB6EB020C5FEA500C50F144
:100DA800000041EB045170BD0EF0004E4EEA1131C7
:100DB80014EB5C04C2BFD4EB0C0541EA045170BDCE
:100DC80041F480114FF0000E013C90E645EA060E12
:100DD8008DE60CEA135594EA0C0F08BF95EA0C0F40
:100DE8003FF43BAF94EA0C0F0AD150EA01347FF488
:100DF80034AF95EA0C0F7FF425AF104619462CE75F
:100E080095EA0C0F06D152EA03353FF4FDAE1046C1
:100E1800194622E750EA410618BF52EA43067FF412
:100E2800C5AE50EA41047FF40DAF52EA43057FF4A2
:100E3800EBAE12E74FF0FF3C06E000BF4FF0010CAD
:100E480002E000BF4FF0010C4DF804CD4FEA410C11
:100E58007FEA6C5C4FEA430C18BF7FEA6C5C1BD0DE
:100E680001B050EA410C0CBF52EA430C91EA030F5F
:100E780002BF90EA020F0020704710F1000F91EABC
:100E8800030F58BF994208BF90422CBFD8176FEA8A
:100E9800E37040F0010070474FEA410C7FEA6C5C58
:100EA80002D150EA013C07D14FEA430C7FEA6C5C5F
:100EB800D6D152EA033CD3D05DF8040B704700BF8B
:100EC8008446104662468C461946634600E000BFD9
:100ED80001B5FFF7B7FF002848BF10F1000F01BDAB
:100EE8004DF808EDFFF7F4FF0CBF012000205DF876
:100EF80008FB00BF4DF808EDFFF7EAFF34BF0120FB
:100F080000205DF808FB00BF4DF808EDFFF7E0FF93
:100F180094BF012000205DF808FB00BF4DF808EDE4
:100F2800FFF7CEFF94BF012000205DF808FB00BF4B
:100F38004DF808EDFFF7C4FF34BF012000205DF82D
:100F480008FB00BF4FEA410C7FEA6C5C02D150EA13
:100F5800013C0AD14FEA430C7FEA6C5C02D152EAA9
:100F6800033C02D14FF0000070474FF0010070477A
:100F78004FEA410212F5001215D211D56FF47873B9
:100F8800B3EB625212D94FEAC12343F0004343EA5C
:100F9800505311F0004F23FA02F018BF4042704737
:100FA8004FF00000704750EA013005D111F00040C1
:100FB80008BF6FF0004070474FF00000704700BF57
:100FC8004A0011D212F5001211D20DD56FF47873C0
:100FD800B3EB62520ED44FEAC12343F0004343EA15
:100FE800505323FA02F070474FF00000704750EA60
:100FF800013002D14FF0FF3070474FF000007047CA
:1010080053B94AB9002908BF00281CBF4FF0FF3167
:101018004FF0FF3000F0AEB9ADF1080C6DE904CE29
:1010280000F03EF8DDF804E0DDE9022304B0704783
:1010380038B505460C460022002328462146FFF70E
:1010480059FF28B928462146BDE8384000F00AB8BB
:10105800284604F1004100F005F8404261EB4101E7
:1010680038BD00BFD0B500220B4B06460F46FFF730
:10107800CFFCFFF7A5FF0446FFF714FA0022074B41
:10108800FFF7C6FC02460B4630463946FFF7CCF858
:10109800FFF796FF2146D0BD0000F03D0000F0416B
:1010A8002DE9F047089E0D4604468846002B4DD191
:1010B8008A42944668D9B2FA82F252B101FA02F32E
:1010C800C2F1200120FA01F10CFA02FC41EA0308FE
:1010D80094404FEA1C41B8FBF1F71FFA8CFE01FB64
:1010E800178807FB0EF0230C43EA084398420AD9F5
:1010F8001CEB030307F1FF3580F01E81984240F294
:101108001B81023F63441B1AB3FBF1F001FB103350
:1011180000FB0EFEA4B244EA0344A6450AD91CEB20
:10112800040400F1FF3380F00981A64540F20681EE
:10113800644402380021A4EB0E0440EA07401EB1C3
:101148000023D440C6E90043BDE8F0878B4208D9A4
:10115800002E00F0EE800021C6E900050846BDE833
:10116800F087B3FA83F100294AD1AB4202D3824215
:1011780000F2FC80841A65EB030301209846002ED8
:10118800E2D0C6E90048DFE702B9FFDEB2FA82F230
:10119800002A40F09180A1EB0C0001214FEA1C4786
:1011A8001FFA8CFEB0FBF7F307FB1300250C45EA8A
:1011B80000450EFB03F0A84208D91CEB050503F116
:1011C800FF3802D2A84200F2CE8043462D1AB5FB62
:1011D800F7F007FB10550EFB00FEA4B244EA0544E5
:1011E800A64508D91CEB040400F1FF3502D2A64538
:1011F80000F2B6802846A4EB0E0440EA03409EE7BE
:10120800C1F120078B4022FA07FC4CEA030C25FAAF
:1012180007FA4FEA1C49BAFBF9F820FA07F309FB69
:1012280018AA8D401FFA8CFE1D4300FA01F308FB33
:101238000EF02C0C44EA0A44A04202FA01F20BD93F
:101248001CEB040408F1FF3A80F08880A04240F2C9
:101258008580A8F102086444241AB4FBF9F009FB5C
:10126800104400FB0EFEADB245EA0444A64508D979
:101278001CEB040400F1FF356CD2A6456AD902388C
:10128800644440EA0840A0FB0295A4EB0E04AC427B
:10129800C846AE4656D353D0002E69D0B3EB0802E9
:1012A80064EB0E0422FA01F304FA07F71F43CC405B
:1012B800C6E90074002147E70CFA02FCC2F12001DC
:1012C80025FA01F34FEA1C4720FA01F195400D4336
:1012D800B3FBF7F107FB11331FFA8CFE280C40EA29
:1012E800034001FB0EF3834204FA02F408D91CEB15
:1012F800000001F1FF382FD283422DD90239604412
:10130800C01AB0FBF7F307FB1300ADB245EA00457E
:1013180003FB0EF0A84208D91CEB050503F1FF38C2
:1013280016D2A84214D9023B6544281A43EA01415F
:1013380038E73146304607E72F46E4E61846F9E62F
:101348004B45A9D2B9EB020865EB0C0E0138A3E7AF
:101358004346EAE7284694E74146D1E7D0467BE78B
:101368006444023847E7023B65442FE7084606E72E
:101378003146E9E6704700BF08B5322000F0BAF8F8
:1013880000F014F900F0C8F900F0E8F800F0A0F94E
:1013980008BD000010B500F0BFF94C494C4B186867
:1013A800FFF74AF9FFF798FA04B24849494B186819
:1013B800FFF742F9FFF790FA002C0BDD464B0122AC
:1013C8001A70454B1B78013B032B78D8DFE803F0F4
:1013D80019334B6100B2002C05DB002807DD3E4BBA
:1013E80003221A70EDE73C4B02221A70E9E7002845
:1013F80003DB394B05221A70E3E7374B04221A70D6
:10140800DFE7322000F076F89621002000F00CF992
:101418009621012000F008F99621022000F004F935
:101428009621032000F000F92B4B00221A700A20A5
:1014380000F0A2FF10BD6FF09501002000F0F4F855
:101448006FF09501012000F0EFF86FF09501022090
:1014580000F0EAF86FF09501032000F0E5F81E4B64
:1014680000221A70E3E79621002000F0DDF86FF003
:101478009501012000F0D8F86FF09501022000F0E6
:10148800D3F89621032000F0CFF8134B00221A70EE
:10149800CDE76FF09501002000F0C6F896210120F5
:1014A80000F0C2F89621022000F0BEF86FF0950116
:1014B800032000F0B9F8084B00221A70B7E70020A3
:1014C80000F09CF8044B00221A70B0E7000020419D
:1014D800780A0020740A0020D8090020014B1880DF
:1014E800704700BFDA090020014B1870704700BF31
:1014F800DC09002010B5012804D0044670B1092881
:1015080018D810BD0120FFF7EFFF0020FFF7E6FF16
:10151800012220210F4801F067FBF2E70020FFF7C6
:10152800E3FF0020FFF7DAFF00222021094801F03D
:101538005BFBE6E70220FFF7D7FF0748A0FB043074
:10154800C008FFF7CBFF01222021024801F04CFB25
:10155800D7E700BF00100140CDCCCCCC08B50421A2
:10156800074802F0DDF90421064802F0D9F9042100
:10157800054802F0D5F90421044802F0D1F908BD64
:10158800300B0020780B0020C00B0020080C002036
:10159800002803DC002805DB0020704700F5C86040
:1015A80000B27047A0F5C86000B2704710B5114C82
:1015B8000021204602F03AF90421204602F026FADA
:1015C8000821204602F022FA0C21204602F02EF9CA
:1015D800094C0021204602F029F90421204602F096
:1015E80025F90821204602F021F90C21204602F0B5
:1015F8001DF910BDE80A0020500C0020034600B178
:1016080001234FF4616202FB03F3064A53639363B9
:10161800D3631364A2F50062136453639363D363C3
:10162800704700BF0034014010B504460846FFF774
:10163800AFFFB0F5616F04DA10F5616F03DC214884
:1016480001E04FF46160032C0BD8DFE804F00211CD
:10165800202D404200B2002804DB1B4B58630022B7
:101668009A6310BD184B00225A6340429863F8E70A
:10167800404200B2002804DB134BD86300221A64EE
:10168800EFE7114B0022DA6340421864E9E70028CB
:1016980004DB0E4B186400225A63E2E70B4B00226E
:1016A8001A6440425863DCE7002804DB074B986360
:1016B8000022DA63D5E7054B00229A634042D863DB
:1016C800CFE700BFF0F1FFFF00340140002C0140DC
:1016D8000021032918DC10B40C4C01EBC10398005D
:1016E8002318002222505A605A619A61DA611A62FC
:1016F800074A9A60074ADA604FF07C521A61013152
:101708000329E9DD10BC7047704700BFE0090020DD
:10171800CDCC4C3F8FC2753D08B501220249034824
:1017280002F053FD08BD00BF700A0020DC0C002049
:1017380010B582B004460D4902F0DEFF38B101AAA7
:101748000B4902F0DBFD10B10A4B019A1A600A49F5
:10175800204602F0D1FF38B101AA084902F0CEFDB7
:1017680010B1074B019A1A6002B010BDC0E2000820
:10177800CCE20008780A0020D8E20008E4E2000879
:10178800740A002008B5124B834200D008BD114BE3
:101798001B780A2B03D0104A1288622A0DD90E4BE7
:1017A80019880E48002242541A80FFF7C1FF01220F
:1017B8000849074802F009FDE8E7501C0649088077
:1017C80006498B5401220349014802F0FEFCDDE77B
:1017D800DC0C0020700A0020E00A00207C0A0020AF
:1017E80000B583B001904FF6FF73012201A90348A9
:1017F80002F0DFFA019803B05DF804FBDC0C00206E
:1018080000B583B00A4B5A6942F001025A615B691C
:1018180003F001030193019B002211460E2000F002
:10182800D1FD0E2000F006FE03B05DF804FB00BFFA
:101838000010024070B588B0002404940594069402
:101848000794214B9A6942F010029A619A6902F052
:1018580010020092009A9A6942F020029A619A69ED
:1018680002F020020192019A9A6942F004029A61F8
:101878009A6902F004020292029A9A6942F00802F6
:101888009A619B6903F008030393039B0F4E22465A
:1018980042F22001304601F0A7F942F220030493F6
:1018A8000125059506940223079304A9304601F003
:1018B8007BF8042304930594069504A9044801F0D1
:1018C80073F808B070BD00BF00100240001001405E
:1018D8000014014072B6FEE700B591B0282200213D
:1018E80006A802F0B9FC0023019302930393049322
:1018F8000593012206924FF4803307930A9202223D
:101908000D920E934FF4E0130F9306A801F088F997
:1019180080B90F23019302210291002303934FF40E
:1019280080620492059301A801F0BAFB20B911B0B6
:101938005DF804FBFFF7CEFFFFF7CCFF08B500F01A
:10194800F7FCFFF7C9FFFFF775FF00F0B5FAFFF7DF
:1019580057FF00F0EBFB00F0CFFB00F03DFB00F081
:10196800B1F800F0E1F800F011F900F041F9FFF7E3
:1019780003FDFFF70FFDFCE782B00E4B9A6942F0BA
:1019880001029A619A6902F001020092009ADA69EA
:1019980042F08052DA61DB6903F080530193019BC6
:1019A800054A536823F0E06343F00073536002B0C4
:1019B800704700BF0010024000000140FEE7FEE74C
:1019C800FEE7FEE7FEE770477047704708B500F08E
:1019D800C1FC08BD08B5024800F070FE08BD00BF94
:1019E800980C002008B5024802F0D2FA08BD00BFE2
:1019F800DC0C002008B5024802F0CAFA08BD00BF96
:101A0800200D00200120704708B502F0FBFB1623CB
:101A180003604FF0FF3008BD08B54FF0FF31FFF706
:101A2800F3FFFEE770B50C461646002506E0AFF357
:101A38000080214601F8010B01350C46B542F6DB62
:101A4800304670BD70B50C461646002504E014F803
:101A5800010BFFF7C5FE0135B542F8DB304670BD16
:101A68004FF0FF3070474FF400534B600020704731
:101A7800012070470020704710B503460C4A0D49F5
:101A88000D48006840B10C4800680344521A93425C
:101A980006D8094A136010BD0748084C0460F2E7ED
:101AA80002F0B0FB0C2303604FF0FF30F3E700BFF8
:101AB80000C0002000040000E40A0020B00D00204F
:101AC8007047000000B58DB02422002103A802F061
:101AD800C3FB00230193029312484FF08042026037
:101AE800436083604FF6FF72C26003618361032322
:101AF800039301230593099303A901F013FD50B93A
:101B080000230193029301A9064801F0F3FF28B9C5
:101B18000DB05DF804FBFFF7DDFEF1E7FFF7DAFE35
:101B2800F6E700BF300B002000B58DB0242200215D
:101B380003A802F091FB0023019302931148124A73
:101B48000260436083604FF6FF72C2600361836185
:101B58000323039301230593099303A901F0E2FCEE
:101B680050B900230193029301A9064801F0C2FF6E
:101B780028B90DB05DF804FBFFF7ACFEF1E7FFF7FD
:101B8800A9FEF6E7780B00200004004000B58DB0F0
:101B98002422002103A802F05FFB00230193029393
:101BA8001148124A0260436083604FF6FF72C260B8
:101BB800036183610323039301230593099303A915
:101BC80001F0B0FC50B900230193029301A9064823
:101BD80001F090FF28B90DB05DF804FBFFF77AFE1D
:101BE800F1E7FFF777FEF6E7C00B0020000800409A
:101BF80000B58DB02422002103A802F02DFB00239C
:101C0800019302931148124A0260436083604FF6C1
:101C1800FF72C26003618361032303930123059369
:101C2800099303A901F07EFC50B9002301930293A4
:101C380001A9064801F05EFF28B90DB05DF804FB64
:101C4800FFF748FEF1E7FFF745FEF6E7080C00202E
:101C5800000C004082B003680E4A934204D00E4A3A
:101C680093420CD002B070470C4B9A6942F4006260
:101C78009A619B6903F400630093009BF2E7074BAA
:101C88009A6942F400529A619B6903F400530193E4
:101C9800019BE7E7002C014000340140001002409E
:101CA80000B58FB000230A930B930C930D93036830
:101CB800B3F1804F0BD0484A93423FD0474A9342F2
:101CC80056D0474A93426DD00FB05DF804FB03F538
:101CD8000433DA6942F00102DA61DA6902F00102DA
:101CE8000192019A9A6942F004029A619A6902F093
:101CF80004020292029A9A6942F008029A619B6968
:101D080003F008030393039B4FF400430A930AA9C3
:101D1800344800F049FE08230A9300230B930C93E0
:101D28000AA9314800F040FE304A536823F4407352
:101D380043F0E06343F480735360C5E72C4BDA69E2
:101D480042F00202DA61DA6902F002020492049AAD
:101D58009A6942F004029A619B6903F004030593AF
:101D6800059BC0230A930AA91E4800F01DFEABE795
:101D78001F4BDA6942F00402DA61DA6902F0040200
:101D88000692069A9A6942F008029A619B6903F0E2
:101D980008030793079BC0230A930AA9124800F077
:101DA80003FE91E7124BDA6942F00802DA61DA6958
:101DB80002F008020892089A9A6942F004029A61AD
:101DC8009B6903F004030993099B03230A930AA957
:101DD800044800F0E9FD77E70004004000080040EF
:101DE800000C004000080140000C014000000140C8
:101DF8000010024010B588B00023049305930693A1
:101E080007930368254A934204D0254A934230D069
:101E180008B010BD234B9A6942F008029A619A698A
:101E280002F008020192019A9A6942F004029A614A
:101E38009B6903F004030293029B03230493022487
:101E48000594079404A9184800F0AEFD4FF41063F8
:101E580004930594079404A9144800F0A5FD144AB6
:101E6800536823F0C00343F0E06343F0400353603A
:101E7800CEE70C4B9A6942F010029A619B6903F015
:101E880010030393039B4FF4707304930223059389
:101E9800079304A9074800F087FDB9E7002C014023
:101EA8000034014000100240000C014000080140CD
:101EB800000001400010014010B596B000241294B3
:101EC8001394149415941094119409940A940B94EF
:101ED8000C940D940E940F942022214601A802F030
:101EE800BBF93B483B4B03604460846040F60F639A
:101EF800C360046144618023836101F0BBFA002858
:101F08004BD14FF48053129312A9314801F012FCBF
:101F1800002845D12E4801F0D9FA002843D10023E2
:101F28001093119310A92A4801F0E4FD00283DD12F
:101F38006023099300220A920B920C920D920E9242
:101F48000F9209A9224801F081FB002831D104220F
:101F580009A91F4801F07AFB70BB082209A91C488F
:101F680001F074FB58BB0C2209A9194801F06EFB5B
:101F780040BB0023019302930393049305934FF40A
:101F880000520692089301A9114801F0F1FDE0B949
:101F98000F48FFF72FFF16B010BDFFF79BFCB0E707
:101FA800FFF798FCB6E7FFF795FCB8E7FFF792FC58
:101FB800BEE7FFF78FFCCAE7FFF78CFCCDE7FFF71A
:101FC80089FCD0E7FFF786FCD3E7FFF783FCDFE760
:101FD800E80A0020002C014010B596B000241294A5
:101FE8001394149415941094119409940A940B94CE
:101FF8000C940D940E940F942022214601A802F00F
:102008002BF93B483B4B03604460846040F60F6308
:10201800C360046144618023836101F02BFA0028C6
:102028004BD14FF48053129312A9314801F082FB2F
:10203800002845D12E4801F049FA002843D1002351
:102048001093119310A92A4801F054FD00283DD19E
:102058006023099300220A920B920C920D920E9221
:102068000F9209A9224801F0F1FA002831D104227F
:1020780009A91F4801F0EAFA70BB082209A91C48FF
:1020880001F0E4FA58BB0C2209A9194801F0DEFA5C
:1020980040BB0023019302930393049305934FF4E9
:1020A80000520692089301A9114801F061FDE0B9B8
:1020B8000F48FFF79FFE16B010BDFFF70BFCB0E707
:1020C800FFF708FCB6E7FFF705FCB8E7FFF702FCE7
:1020D800BEE7FFF7FFFBCAE7FFF7FCFBCDE7FFF71B
:1020E800F9FBD0E7FFF7F6FBD3E7FFF7F3FBDFE7F2
:1020F800500C00200034014008B50A480A4B036020
:102108004FF4E133436000238360C36003610C2212
:1021180042618361C36101F01DFE00B908BDFFF78C
:10212800D9FBFBE7DC0C00200038014008B50D485E
:102138000D4B03600D4B43604FF4805383604FF4A5
:102148000053C3604FF4806303610C234361002391
:102158008361C36101F0FEFD00B908BDFFF7BAFB5A
:10216800FBE700BF200D002000440040A0860100CE
:1021780070B588B00023049305930693079303680A
:102188003F4A934204D03F4A934249D008B070BDB9
:1021980004463D4B9A6942F480429A619A6902F476
:1021A80080420092009A9A6942F004029A619B69FF
:1021B80003F004030193019B4FF40073049302237B
:1021C800059303230793314E04A9304600F0ECFB36
:1021D8004FF48063049300250595069504A93046BD
:1021E80000F0E2FB2A482B4B036010234360856014
:1021F8008023C360056145618561C56100F03CF9D4
:1022080058B9234B63635C6200221146252000F015
:10221800D9F8252000F00EF9B8E7FFF75BFBF0E7E7
:10222800194BDA6942F40032DA61DA6902F40032F1
:102238000292029A9A6942F004029A619B6903F039
:1022480004030393039B04230493022305930323AA
:1022580007930E4D04A9284600F0A6FB0823049313
:1022680000240594069404A9284600F09DFB224604
:102278002146262000F0A6F8262000F0DBF885E7A6
:1022880000380140004400400010024000080140AE
:10229800980C0020440002400C480D490D4A0023C8
:1022A80002E0D458C4500433C4188C42F9D30A4A03
:1022B8000A4C002301E013600432A242FBD3FFF76B
:1022C800FFFB01F0A5FFFFF739FB70470000002076
:1022D800BC09002058E90008BC090020B00D002006
:1022E800FEE7000010B504460E4B18784FF47A73D9
:1022F800B3FBF0F30C4A1068B0FBF3F000F0A8F859
:1023080068B90F2C01D901200AE0002221464FF0BC
:10231800FF3000F057F8054B1C60002000E001205A
:1023280010BD00BF040000200000002008000020AD
:1023380008B5074A136843F010031360032000F040
:102348002FF80F20FFF7CEFFFFF716FB002008BD80
:1023580000200240034A1168034B1B780B441360AA
:10236800704700BF640D002004000020014B18686E
:10237800704700BF640D002038B50446FFF7F6FF2C
:102388000546B4F1FF3F02D0044B1B781C44FFF70D
:10239800EDFF401BA042FAD338BD00BF0400002067
:1023A800074AD36823F4E0631B041B0C000200F403
:1023B800E060034343F0BF6343F40033D3607047E6
:1023C80000ED00E000B5194BDB68C3F30223C3F14D
:1023D800070CBCF1040F28BF4FF0040C03F1040EE6
:1023E800BEF1060F18D9033B4FF0FF3E0EFA0CFC66
:1023F80021EA0C0199400EFA03F322EA0303194378
:1024080000280BDB0901C9B200F1604000F561400A
:1024180080F800135DF804FB0023E5E700F00F00E7
:102428000901C9B2024B1954F4E700BF00ED00E0FE
:1024380014ED00E0002807DB00F01F02400901232B
:102448009340024A42F82030704700BF00E100E0A4
:102458000138B0F1807F0BD24FF0E0235861054A74
:10246800F02182F823100020986107221A61704732
:102478000120704700ED00E000283AD010B4024671
:1024880000681D4B984229D81C4B03441C49A1FBEA
:1024980003131B099B0013641A4BD363022382F8AE
:1024A8002130016821F47F5121F03001536894688C
:1024B8002343D46823431469234354692343946909
:1024C8002343D46923430B43036000209063012313
:1024D80082F8213082F8200010BC70470A4B034470
:1024E8000749A1FB03131B099B001364074BD36324
:1024F800D4E70120704700BF07040240F8FFFDBF82
:10250800CDCCCCCC00000240F8FBFDBF000402405B
:1025180090F82130022B06D004238363002380F82F
:102528002030012070470268136823F00E031360FF
:102538000268136823F001031360036CC16B012266
:1025480002FA03F34B6080F82120002380F8203042
:102558001846704708B590F82130022B03D00423A1
:102568008363012008BD0268136823F00E0313601B
:102578000268136823F00103136003684B4A93420F
:102588004ED9783A934224D01432934230D0143240
:1025980093422FD0143293422FD0143293422FD02B
:1025A800143293422FD0143293422FD002F5627224
:1025B80093422ED0143293422DD0143293422CD011
:1025C8001432934202D04FF4803203E04FF4805229
:1025D80000E00122364B5A60012380F821300023A5
:1025E80080F82030436B002B5ED098470020B9E775
:1025F8001022EFE74FF48072ECE74FF48052E9E7DE
:102608004FF48032E6E74FF48012E3E74FF0807230
:10261800E0E70122DEE71022DCE74FF48072D9E719
:10262800244A934224D01432934225D01432934240
:1026380024D01432934224D01432934224D014323A
:10264800934224D01432934224D002F5627293420A
:1026580023D01432934222D01432934221D0143220
:10266800934202D04FF4803203E04FF4805200E0EE
:102678000122114B5A60AFE71022FAE74FF480723B
:10268800F7E74FF48052F4E74FF48032F1E74FF464
:102698008012EEE74FF08072EBE70122E9E71022A3
:1026A800E7E74FF48072E4E700205BE78000024030
:1026B80000040240080002400000024038B5C36B25
:1026C8001A6804682568016C04238B40134200F0E3
:1026D8009B8015F0040F00F09780236813F0200FFB
:1026E80003D1236823F00403236003689A4A9342C2
:1026F80046D9783A934224D01432934228D01432DF
:10270800934227D01432934227D01432934227D0D1
:102718001432934227D01432934227D002F56272C2
:10272800934226D01432934225D01432934224D0B7
:102738001432934202D04FF4802203E04FF48042D7
:1027480000E00422854B5A60C36A03B1984738BD3C
:102758004022F7E74FF48062F4E74FF48042F1E754
:102768004FF48022EEE74FF48002EBE74FF08062EF
:10277800E8E70422E6E74022E4E74FF48062E1E775
:10278800774A934224D01432934225D0143293428C
:1027980024D01432934224D01432934224D01432D9
:1027A800934224D01432934224D002F562729342A9
:1027B80023D01432934222D01432934221D01432BF
:1027C800934202D04FF4802203E04FF4804200E0AD
:1027D8000422644B5A60B7E74022FAE74FF480625C
:1027E800F7E74FF48042F4E74FF48022F1E74FF423
:1027F8008002EEE74FF08062EBE70422E9E740222F
:10280800E7E74FF48062E4E702238B40134200F0CD
:10281800AB8015F0020F00F0A780236813F0200F9B
:1028280006D1236823F00A032360012380F82130AE
:102838000368494A93424BD9783A934224D01432D8
:1028480093422DD0143293422CD0143293422CD080
:10285800143293422CD0143293422CD01432934227
:102868002CD002F5627293422BD0143293422AD0B4
:102878001432934229D01432934202D04FF40032DA
:1028880003E04FF4005200E00222344B5A60002368
:1028980080F82030836A002B3FF459AF984756E7F9
:1028A8002022F2E74FF40072EFE74FF40052ECE712
:1028B8004FF40032E9E74FF40012E6E74FF00072F8
:1028C800E3E70222E1E72022DFE74FF40072DCE7CA
:1028D800234A934224D01432934225D0143293428F
:1028E80024D01432934224D01432934224D0143288
:1028F800934224D01432934224D002F56272934258
:1029080023D01432934222D01432934221D014326D
:10291800934202D04FF4003203E04FF4005200E03B
:102928000222104B5A60B2E72022FAE74FF40072F5
:10293800F7E74FF40052F4E74FF40032F1E74FF4B1
:102948000012EEE74FF00072EBE70222E9E72022DF
:10295800E7E74FF40072E4E7800002400004024019
:102968000800024000000240082303FA01F1114266
:102978003FF4EDAE15F0080F3FF4E9AE236823F0FD
:102988000E032360026CC16B012303FA02F24A6052
:10299800836380F82130002380F82030036B002BFC
:1029A8003FF4D5AE9847D2E670B582B00024A4466D
:1029B800B0E0874DAA4210D007D9864DAA420CD064
:1029C80005F58035AA4208D013E0A5F58015AA427E
:1029D80003D005F57025AA4207D18A68002A62D07B
:1029E800012A5BD04361082403E0A5F58015AA42BB
:1029F800F3D0BEF1FF0F58D80646BEF1FF0F56D8E8
:102A08004FEA8C0233680F25954023EA050304FA40
:102A180002F2134333604B6813F0805F78D06E4B3B
:102A28009A6942F001029A619B6903F001030193DC
:102A3800019B4FEA9C02951C684B53F825600CF0EB
:102A480003039D000F23AB4026EA0306644B98421C
:102A580033D003F58063984200F0988003F58063D3
:102A6800984200F0958003F58063984200F09280C8
:102A780003F58063984200F08F8003F580639842E5
:102A880019D006231AE0CC68B3E7CC680434B0E761
:102A9800CC680834ADE7CC680C34AAE70361082495
:102AA800A7E70024A5E70424A3E7061DA5E7ACF1E2
:102AB80008029200A6E7052300E00023AB40334359
:102AC8000232464D45F822304B6813F4803F65D0FA
:102AD800444A136843EA0E0313604B6813F4003F3B
:102AE80062D0404A536843EA0E0353604B6813F4BC
:102AF800801F5FD03B4A936843EA0E0393604B689C
:102B080013F4001F5CD0374AD36843EA0E03D3603E
:102B18000CF1010C0A6832FA0CF357D0012303FABE
:102B28000CF302EA030E33EA0202F1D14A68122AD0
:102B38003FF63FAF122A3FF65CAF01A555F822F0E9
:102B4800E32900088F2A0008992A0008AB2A000800
:102B5800FB290008FB290008FB290008FB290008BD
:102B6800FB290008FB290008FB290008FB290008AD
:102B7800FB290008FB290008FB290008FB2900089D
:102B8800FB290008932A00089F2A0008012395E7DB
:102B9800022393E7032391E704238FE7114A13687D
:102BA80023EA0E03136098E70E4A536823EA0E03DC
:102BB80053609BE70B4A936823EA0E0393609EE7F2
:102BC800084AD36823EA0E03D360A1E702B070BDB8
:102BD80000002210000031100010024000000140E7
:102BE80000080140000401400AB10161704709046E
:102BF8000161704782B0084B1B68084AA2FB032397
:102C08005B0A00FB03F3019300BF019B5A1E01926C
:102C1800002BF9D102B0704700000020D34D62109C
:102C2800002800F0F18170B582B00446036813F003
:102C3800010F2CD0994B5B6803F00C03042B1DD0BB
:102C4800964B5B6803F00C03082B12D06368B3F54E
:102C5800803F41D0002B55D103F1804303F5043365
:102C68001A6822F480321A601A6822F480221A60E4
:102C780037E08A4B5B6813F4803FE7D0874B1B68CB
:102C880013F4003F03D06368002B00F0BF81236872
:102C980013F0020F75D0814B5B6813F00C0F5FD0F7
:102CA8007E4B5B6803F00C03082B54D02369002B80
:102CB80000F08A807A4B01221A60FFF757FB05461D
:102CC800764B1B6813F0020F75D1FFF74FFB401BC3
:102CD8000228F5D903209EE1704A136843F4803333
:102CE8001360636843B3FFF741FB05466B4B1B68F2
:102CF80013F4003FCBD1FFF739FB401B6428F5D90B
:102D0800032088E1B3F5A02F09D0644B1A6822F498
:102D180080321A601A6822F480221A60E1E703F10F
:102D28008043A3F53C331A6842F480221A601A687B
:102D380042F480321A60D4E7FFF718FB0546574B78
:102D48001B6813F4003FA2D0FFF710FB401B642858
:102D5800F5D903205FE1514B5B6813F4803FA5D19F
:102D68004E4B1B6813F0020F03D02369012B40F070
:102D78004F814A4A136823F0F803616943EAC103A3
:102D88001360236813F0080F33D0A369002B5CD0BD
:102D9800434B0122C3F88024FFF7E8FA05463F4B6E
:102DA8005B6A13F0020F21D1FFF7E0FA401B0228FB
:102DB800F5D903202FE1394A136823F0F803616934
:102DC80043EAC1031360DCE7354B00221A60FFF7C2
:102DD800CDFA0546314B1B6813F0020FD1D0FFF72F
:102DE800C5FA401B0228F5D9032014E10120FFF79A
:102DF80001FF236813F0040F00F09680274BDB696E
:102E080013F0805F34D1254BDA6942F08052DA61E1
:102E1800DB6903F080530193019B0125214B1B685B
:102E280013F4807F26D0E368012B3DD0002B53D1CB
:102E380003F1804303F504331A6A22F001021A628F
:102E48001A6A22F004021A6233E0154B0022C3F812
:102E58008024FFF78BFA0546104B5B6A13F0020FCC
:102E6800C7D0FFF783FA401B0228F5D90320D2E028
:102E78000025D3E70B4A136843F480731360FFF708
:102E880075FA0646074B1B6813F4807FCBD1FFF712
:102E98006DFA801B6428F5D90320BCE000100240BD
:102EA80000004242007000405F4A136A43F0010389
:102EB8001362E36833B3FFF759FA06465A4B1B6AA5
:102EC80013F0020F2FD1FFF751FA801B41F288331C
:102ED8009842F3D903209EE0052B09D0524B1A6A79
:102EE80022F001021A621A6A22F004021A62E0E76A
:102EF8004D4B1A6A42F004021A621A6A42F0010241
:102F08001A62D6E7FFF732FA0646474B1B6A13F0F8
:102F1800020F08D0FFF72AFA801B41F28833984243
:102F2800F3D9032077E0E5B9E369002B72D03E4A74
:102F3800526802F00C02082A56D0022B17D03B4BDD
:102F480000221A66FFF712FA0446374B1B6813F083
:102F5800007F47D0FFF70AFA001B0228F5D90320A3
:102F680059E0314AD36923F08053D361DCE72F4B12
:102F780000221A66FFF7FAF905462B4B1B6813F077
:102F8800007F06D0FFF7F2F9401B0228F5D903208D
:102F980041E0236AB3F5803F1AD023494B6823F4F4
:102FA8007413226A606A024313434B601F4B012269
:102FB8001A66FFF7DBF904461B4B1B6813F0007F0A
:102FC8000ED1FFF7D3F9001B0228F5D9032022E020
:102FD800154A536823F40033A1680B435360DCE7B8
:102FE800002018E0002016E0012B16D00E4B5B687D
:102FF80003F48031226A914211D103F47013626A9A
:1030080093420ED1002006E001207047012002E023
:10301800012000E0002002B070BD0120FBE7012084
:10302800F9E70120F7E700BF001002400000424224
:1030380086B0174B0FCB0DF1180C0CE90F0040F2BE
:103048000123ADF80430134B5B6803F00C02082A27
:1030580002D0114806B07047C3F3834218326A445D
:1030680012F8100C13F4803F0DD00A4B5B68C3F3C1
:10307800404318336B4413F8143C074A02FB00F032
:10308800B0FBF3F0E6E7054B03FB00F0E2E700BF17
:103098000CE300080010024000127A0000093D000D
:1030A800002800F0A08070B50D460446524B1B68FE
:1030B80003F007038B420BD24F4A136823F0070330
:1030C8000B431360136803F007038B4240F08D80B5
:1030D800236813F0020F17D013F0040F04D0474AE7
:1030E800536843F4E0635360236813F0080F04D077
:1030F800424A536843F460535360404A536823F08C
:10310800F003A1680B435360236813F0010F31D01B
:103118006368012B20D0022B25D0384A126812F0A0
:10312800020F64D035494A6822F0030213434B600A
:10313800FFF71CF90646314B5B6803F00C03626825
:10314800B3EB820F16D0FFF711F9801B41F28833D9
:103158009842F0D9032045E0284A126812F4003F4B
:10316800E0D101203EE0254A126812F0007FD9D153
:10317800012037E0204B1B6803F00703AB420AD954
:103188001D4A136823F007032B431360136803F0E9
:103198000703AB422DD1236813F0040F06D0174A5A
:1031A800536823F4E063E1680B435360236813F02A
:1031B800080F07D0114A536823F46053216943EA82
:1031C800C1035360FFF734FF0C4B5B68C3F3031371
:1031D8000B4AD35CD8400B4B18600B4B1868FFF7B1
:1031E80081F8002070BD012070470120FAE7012016
:1031F800F8E70120F6E700BF002002400010024077
:10320800F4E200080000002008000020014B1868C4
:10321800704700BF0000002008B5FFF7F7FF044B18
:103228005B68C3F30223034AD35CD84008BD00BFE0
:103238000010024004E3000808B5FFF7E7FF044B5D
:103248005B68C3F3C223034AD35CD84008BD00BF00
:103258000010024004E3000830B4036A23F00103BD
:103268000362036A4268846924F073040D682C437E
:1032780023F0020C8B6843EA0C03104DA84203D0DC
:1032880005F50065A84205D123F00803CD682B4356
:1032980023F00403094DA84203D005F50065A842B0
:1032A80005D122F440724D692A438D692A43426050
:1032B80084614A684263036230BC7047002C014055
:1032C80030B4036A23F480730362036A4268C469F2
:1032D80024F0730C0C6844EA0C0523F400738C6822
:1032E80043EA0423114CA04203D004F50064A04231
:1032F80006D123F40063CC6843EA042323F48063F3
:103308000A4CA04203D004F50064A04207D122F47D
:1033180040524C6942EA04128C6942EA0412426043
:10332800C5614A68C263036230BC7047002C014023
:1033380030B4036A23F480530362036A4468C269A1
:1033480022F4E6420D6842EA052223F400538D6810
:1033580043EA0533094DA84203D005F50065A842A4
:1033680004D124F480444D6944EA85144460C26160
:103378004A680264036230BC704700BF002C0140F9
:1033880010B4036A046A24F001040462846924F016
:10339800F00C4CEA021223F00A030B438261036229
:1033A80010BC704710B4046A24F0100404628469E5
:1033B800036A24F4704C4CEA023223F0A00343EA77
:1033C80001138261036210BC7047836823F07003A5
:1033D8000B4343F007038360704770470368244A30
:1033E800904212D002F5006290420ED0B0F1804FA8
:1033F8000BD0A2F59832904207D002F58062904235
:1034080003D002F58062904203D123F070034A682A
:103418001343174A904212D002F5006290420ED030
:10342800B0F1804F0BD0A2F59832904207D002F548
:103438008062904203D002F58062904203D123F467
:103448004073CA68134323F080034A691343036037
:103458008B68C3620B688362054B984203D003F5FF
:103468000063984201D10B690363012343617047EC
:10347800002C014040B310B5044690F83D30F3B13C
:10348800022384F83D30214651F8040BFFF7A6FFCC
:10349800012384F8463084F83E3084F83F3084F8BD
:1034A800403084F8413084F8423084F8433084F85E
:1034B800443084F8453084F83D30002010BD80F851
:1034C8003C30FEF7C7FBDBE70120704740B310B57F
:1034D800044690F83D30F3B1022384F83D3021468C
:1034E80051F8040BFFF77AFF012384F8463084F87B
:1034F8003E3084F83F3084F8403084F8413084F816
:10350800423084F8433084F8443084F8453084F8F5
:103518003D30002010BD80F83C30FFF75EFFDBE750
:1035280001207047002857D070B50D46044690F822
:103538003D30002B4BD0022384F83D30226893683D
:1035480023F4804323F007039360214651F8040BCA
:10355800FFF744FF21688A688B690E6A2868104360
:1035680023F4407C2CF0030CAA68AB6942EA0323DD
:1035780043EA0C0323F47C4323F0FC03EA69D5F8FF
:103588000CC04CEA022C4CEA030C2A6A13032A6981
:1035980043EA021343EA0C0326F022066A686D69BF
:1035A80042EA05123243886021688B6123681A62F7
:1035B800012384F8463084F83E3084F83F3084F89C
:1035C800423084F8433084F83D30002070BD80F8E4
:1035D8003C30FEF765FBAEE70120704730B4036A64
:1035E80023F010030362036A4468826922F4E64206
:1035F8000D6842EA052223F020038D6843EA05138B
:10360800114DA84203D005F50065A84206D123F064
:103618008003CD6843EA051323F040030A4DA8420E
:1036280003D005F50065A84207D124F440644D692C
:1036380044EA85048D6944EA8504446082614A68E5
:103648008263036230BC7047002C014038B590F8A3
:103658003C30012B60D004460D46012380F83C30F5
:103668000C2A1AD8DFE802F0071919191D191919B7
:103678003119191944000068FFF7EEFD22689369B3
:1036880043F0080393612268936923F0040393616C
:103698002268936929690B439361002084F83C00F0
:1036A80038BD0068FFF79AFF2268936943F4006306
:1036B80093612268936923F4806393612268936914
:1036C800296943EA01239361E7E70068FFF7F8FDFA
:1036D8002268D36943F00803D3612268D36923F0D1
:1036E8000403D3612268D36929690B43D361D4E702
:1036F8000068FFF71DFE2268D36943F40063D361B5
:103708002268D36923F48063D3612268D369296965
:1037180043EA0123D361C0E70220C1E710B48468FB
:1037280024F47F4C42EA03220A4342EA0C028260F4
:1037380010BC704790F83C30012B66D010B5044699
:10374800012380F83C30022380F83D3002689368FA
:1037580023F47F4323F0770393600B68602B40D0FA
:1037680022D8402B47D00BD9502B0ED1CA684968B4
:103778000068FFF705FE50212068FFF726FE04E0E9
:10378800202B0CD008D9302B09D0012384F83D30E8
:10379800002084F83C0010BD0BB1102BF5D1194660
:1037A8002068FFF712FEF0E7702B0ED0B3F5005F2C
:1037B800EBD1CB684A6889680068FFF7AFFF2268D9
:1037C800936843F480439360DFE7CB684A6889686D
:1037D8000068FFF7A3FF2268936843F077039360BC
:1037E800D3E7CA6849680068FFF7DCFD60212068F4
:1037F800FFF7EBFDC9E7CA6849680068FFF7C0FD35
:1038080040212068FFF7E1FDBFE70220704701F083
:103818001F01012303FA01FC036A23EA0C03036274
:10382800036A02FA01F10B430362704710B50446BC
:10383800084600293AD194F83E30DBB2013B18BF64
:103848000123002B66D1002849D1022384F83E3099
:10385800012201462068FFF7DAFF23682F4A9342C6
:1038680003D002F50062934203D15A6C42F400423D
:103878005A642368294A934241D002F50062934270
:103888003DD0B3F1804F3AD0A2F59832934236D06A
:1038980002F58062934232D002F5806293422ED0C4
:1038A8001A6842F001021A60002032E0042908D0A8
:1038B80008290DD094F84130DBB2013B18BF012331
:1038C800BFE794F83F30DBB2013B18BF0123B8E7EC
:1038D80094F84030DBB2013B18BF0123B1E704285C
:1038E80005D0082807D0022384F84130B0E7022326
:1038F80084F83F30ACE7022384F84030A8E79A68A0
:1039080002F00702062A07D01A6842F001021A607C
:10391800002010BD0120FCE70020FAE7002C014040
:1039280038B5044690F83E00C0B294F83F3094F899
:103938004220D2B294F843C00D46B1B9012849D10A
:10394800012A48D1022384F83E3084F842307DB3FE
:10395800042D39D0012200212068FFF758FF0122E9
:1039680004212068FFF753FF27E0DBB25FFA8CFCE5
:10397800042912D0012833D1012B2CD1012A31D1AD
:10398800BCF1010F30D1022384F83E3084F83F3077
:1039980084F8423084F84330D9E7012B1CD1BCF1BC
:1039A800010F1BD1022384F83F3084F84330CEE75F
:1039B800012200212068FFF72AFF2268136843F0DC
:1039C80001031360002006E0012204212068FFF7AC
:1039D8001EFFF2E7012038BD0120FCE71846FAE790
:1039E8000120F8E71846F6E71046F4E701F01F0152
:1039F800042303FA01FC036A23EA0C030362036A43
:103A080002FA01F10B4303627047000010B5044647
:103A18000846002933D194F84230DBB2013B18BF85
:103A28000123002B5FD1002842D1022384F84230C1
:103A3800042201462068FFF7D9FF2268536C43F43B
:103A48000043536423682A4A934241D002F5006236
:103A580093423DD0B3F1804F3AD0A2F598329342C9
:103A680036D002F58062934232D002F580629342EA
:103A78002ED01A6842F001021A60002032E00429B0
:103A880008D008290DD094F84530DBB2013B18BFA7
:103A98000123C6E794F84330DBB2013B18BF01238A
:103AA800BFE794F84430DBB2013B18BF0123B8E705
:103AB800042805D0082807D0022384F84530B7E742
:103AC800022384F84330B3E7022384F84430AFE795
:103AD8009A6802F00702062A07D01A6842F0010223
:103AE8001A60002010BD0120FCE70020FAE700BFA3
:103AF800002C014090F83C30012B34D010B4012345
:103B080080F83C30022380F83D3003685A689C688E
:103B180022F0700C0A6842EA0C025A600368134AE1
:103B2800934212D002F5006293420ED0B3F1804F57
:103B38000BD0A2F59832934207D002F580629342E7
:103B480003D002F58062934204D124F080044A68CD
:103B580014439C60012380F83D30002380F83C30FA
:103B6800184610BC70470220704700BF002C014067
:103B780090F83C30012B22D0012380F83C30CB68F0
:103B880023F440738A68134323F480634A68134319
:103B980023F400630A68134323F480530A69134328
:103BA80023F400534A69134323F48043CA69134337
:103BB80002685364002380F83C301846704702209E
:103BC80070470268D36823F49073D360026853691E
:103BD80023F001035361036B012B05D0202380F8E8
:103BE8003E300023036370470268D36823F0100354
:103BF800D360F3E790F83D30DBB2212B01D00220EF
:103C080070478368B3F5805F17D0036A5A1C026255
:103C18001A7803685A60C38C9BB2013B9BB2C38479
:103C28004BB90268D36823F08003D3600268D36875
:103C380043F04003D360002070470369002BE4D1B0
:103C4800036A1B880268C3F308035360036A0233DC
:103C58000362E0E710B504460268136923F4405391
:103C6800C1680B43136183680269134342691A43AD
:103C78000168CB6823F4B05323F00C031343CB60E3
:103C88000268536923F4407381690B4353610268E6
:103C9800134B9A4220D0FFF7BFFA024602EB82028A
:103CA80002EB820263689B00B2FBF3F20D48A0FBB3
:103CB80002314909642303FB11231B013233A0FBA2
:103CC80003235B0903F0F00202EB011203F00F0378
:103CD800216813448B6010BDFFF7AEFA0246DDE79A
:103CE800003801401F85EB512DE9F84305460F4682
:103CF80016469946DDF820802C68246837EA0403C4
:103D08000CBF4FF0010C4FF0000CB4451FD1B8F1B7
:103D1800FF3FF1D0B8F1000F05D0FEF727FBA0EB6D
:103D280009004045E8D92A68D36823F4D073D360E2
:103D38002A68536923F001035361202385F83D3035
:103D480085F83E30002385F83C30032000E0002051
:103D5800BDE8F88358B310B5044690F83D300BB36E
:103D6800242384F83D302268D36823F40053D360B9
:103D78002046FFF76FFF2268136923F4904313610D
:103D88002268536923F02A0353612268D36843F4F5
:103D98000053D36000202064202384F83D3084F849
:103DA8003E3010BD80F83C30FEF7E2F9D8E701203C
:103DB80070472DE9F04182B01E4690F83D30DBB2E5
:103DC800202B54D104460D469046002953D0002A92
:103DD80053D090F83C30012B51D0012380F83C306F
:103DE80000230364212380F83D30FEF7BFFA07461D
:103DF800A4F82480A4F82680A368B3F5805F05D0D2
:103E08004FF00008002384F83C3012E0236913B116
:103E18004FF00008F6E7A8460025F3E738F8023B1C
:103E28002268C3F308035360E28C92B2013A92B25B
:103E3800E284E38C9BB273B100963B46002280215A
:103E48002046FFF751FFE0B9002DE7D015F8012B08
:103E580023685A60E8E700963B4600224021204646
:103E6800FFF742FF78B9202384F83D3000E00220B4
:103E780002B0BDE8F0810120FAE70120F8E702204E
:103E8800F6E70320F4E70320F2E7704708B5016876
:103E9800CA6822F04002CA60202280F83D20FFF75D
:103EA800F4FF002008BD704708B5406A0023C385A9
:103EB800C384FFF7F8FF08BD704790F83E30DBB2C7
:103EC800222B60D18368B3F5805F46D0826AB3F550
:103ED800805F04D0002B4DD10369002B4AD10368C1
:103EE8005B681370836A01338362C38D9BB2013BA5
:103EF8009BB2C385002B48D100B583B00268D36854
:103F080023F02003D3600268D36823F48073D3605E
:103F18000268536923F001035361202380F83E307F
:103F2800036B012B2CD1002303630268D36823F0B1
:103F38001003D36003681A6812F0100F06D000222D
:103F480001921A6801925B680193019B818DFFF7CA
:103F5800B3FF002003B05DF804FB0269002AB5D165
:103F6800826A03685B68C3F308031380836A0233B9
:103F78008362BAE703685B6803F07F031370B1E7F5
:103F8800FDF700FCE5E702207047002070470000BD
:103F980030B583B0044602681368D068516913F0DD
:103FA8000F0505D113F0200F02D010F0200F19D102
:103FB8002DB111F0010119D110F4907F16D1216BA8
:103FC800012975D013F0800F03D010F0800F40F056
:103FD800D78013F0400F03D010F0400F40F0D4808A
:103FE80003B030BD2046FFF768FFF9E713F0010F73
:103FF80006D010F4807F03D0226C42F001022264C4
:1040080013F0040F04D019B1226C42F002022264AA
:1040180013F0020F04D019B1226C42F0040222649A
:1040280013F0080F07D010F0200F00D119B1226C3F
:1040380042F008022264226C002AD1D013F0200F2B
:1040480002D010F0200F21D123685B6903F04003F0
:10405800226C12F0080F00D123B32046FFF7B1FD00
:1040680023685A6912F0400F18D05A6922F04002AA
:104078005A61A36B73B1464A5A63A06BFEF76AFA9A
:104088000028ADD0A06B436B9847A9E72046FFF7FF
:1040980014FFD9E72046FFF706FFA1E72046FFF700
:1040A80002FF9DE72046FFF7FEFE0023236497E703
:1040B80013F0100F86D010F0100F83D00023019357
:1040C8001368019353680193019B536913F0400FE0
:1040D80032D0A16B0B685B689BB2002B80D0A08D9F
:1040E80098427FF67DAFE3858B69202B08D1A18D9F
:1040F800E38D9BB2C91A89B22046FFF7DDFE6FE750
:10410800D36823F48073D3602268536923F00103D2
:1041180053612268536923F040035361202384F8D4
:104128003E30002323632268D36823F01003D36052
:10413800A06BFEF7EDF9DAE7A18DE38D9BB2C91A02
:1041480089B2E38D9BB2002B3FF44AAF00293FF4BC
:1041580047AFD36823F49073D3602268536923F080
:1041680001035361202384F83E300023236322682F
:10417800D36823F01003D3602046FFF79DFE2FE796
:104188002046FFF737FD2BE72046FFF77FFE27E79E
:10419800B13E0008034681628285C285002018640A
:1041A800222283F83E2083F83C001968CA6842F44A
:1041B8008072CA6019684A6942F001024A611A6845
:1041C800D36843F02003D360704708B590F83E30B9
:1041D800DBB2202B0DD171B17AB190F83C30012BB4
:1041E8000DD0012380F83C3000230363FFF7D2FF92
:1041F80000E0022008BD0120FCE70120FAE70220C8
:10420800F8E70000014B1868704700BF0C00002059
:1042180070B50D4E0D4D761BB61006D0002455F81E
:10422800043B01349847A642F9D1094E094D0AF0DA
:1042380035F8761BB61006D0002455F8043B013437
:104248009847A642F9D170BD4CE900084CE900082E
:1042580054E900084CE90008830730B548D0541EDB
:10426800002A3FD00346CAB201E0013C3AD303F822
:10427800012B9D07F9D1032C2DD9CDB245EA05258F
:104288000F2C45EA054536D9A4F1100222F00F0C8F
:1042980003F1200EE6444FEA121C03F1100242E932
:1042A800045542E9025510327245F8D10CF1010269
:1042B80014F00C0F03EB021204F00F0C13D0ACF146
:1042C800040323F003030433134442F8045B9342CA
:1042D800FBD10CF003042CB1CAB21C4403F8012B27
:1042E8009C42FBD130BD64461346002CF4D1F9E75B
:1042F80003461446BFE71A46A446E0E70EB44FF457
:104308000172F0B59CB021AD55F8047BADF81420CE
:104318000290069000F066F8002604464FF6FF7CEF
:104328000A4B0B490A933A462B46086802A901959D
:104338000E961396ADF816C00394079400F090FA01
:104348001CB0BDE8F04003B0704700BF81430008CF
:104358000C00002010B50C46B1F90E1004F0AEFCAC
:10436800002803DB236D0344236510BDA38923F4D0
:104378008053A38110BD00BF002070472DE9F04194
:104388000C46B1F90C101F46CB05054616460BD452
:1043980021F48051A1813B4632462846B4F90E10DB
:1043A800BDE8F04101F0DCBDB4F90E100223002293
:1043B80003F0EEFAB4F90C10EAE700BF10B50C46AA
:1043C800B1F90E1003F0E4FAA389421C0EBF23F4DE
:1043D800805343F480532065A38110BDB1F90E10BA
:1043E80001F04EBE20F0030110F00300C0F1000000
:1043F80051F8043B00F1040C4FEACC0C6FF00002BA
:104408001CBF22FA0CF213434FF0010C4CEA0C2C9F
:104418004CEA0C4CA3EB0C0222EA030212EACC127F
:1044280004BF51F8043B0430F4D0C2F1000102EAA1
:104438000102B2FA82F2C2F11F0200EBD200704709
:104448002DE9F04F012B1D4681460F469046ADF2EF
:104458001C4D40F24781012300219C464FF0FF3458
:104468001A4606E019460122A3EB040C8B189D425C
:1044780010D908EB0400805C18F803608642F1D379
:1044880000F081804FF0010C62460C4661448B18A5
:104498009D42EED8CDF808C04FF0010C00204FF037
:1044A800FF366146634606E018460121A3EB060C79
:1044B80043189D420FD908EB010218F803E0925DFA
:1044C8009645F1D865D04FF0010C61460646604428
:1044D80043189D42EFD8013604F1010BB34502D8C9
:1044E800B346CDF808C005AB0DF2144243F8045F9B
:1044F8009342FBD1002D00F0FA806C1E06AE08F145
:10450800FF3208EB0400019612F8011FD3432B4435
:104518004344904246F82130F6D1029E5A4640461E
:1045280008EB060103F0F6FD002840F083800BF14C
:10453800FF3305938246AB1B0646039309EB060E31
:104548001EF80430019A52F8233043B3BAF1000F31
:1045580004D0029A9342039A38BF13464FF0000AD8
:104568001E447B1BB342E9D209EB070045F4006106
:1045780004F002FF07447B1BB342DFD200200DF298
:104588001C4DBDE8F08F94450ABF012201326144F9
:104598006CE761450ABF40180131012188E7D3451E
:1045A8005B4638BF5346A34214D2591E9A19414458
:1045B8004A4402E00133A3420CD212F8010B11F86D
:1045C80001CF8445F6D0CBF1010216444FF0000A22
:1045D8001E44C6E7D345059B7DD90BEB06024A442A
:1045E80008EB0B01CDF810B002E0534516D0034696
:1045F80012F8010D11F801CD03F1010B844503F107
:10460800FF30F2D05B46DDF810B00AF1010A9A4596
:104618000BD8029BDDF80CA01E44A2E753460AF112
:10462800010A9A45DDF810B0F3D970460DF21C4D19
:10463800BDE8F08FA5EB0B035B4538BF5B46002652
:104648000BF1FF3202920133CBF10102039245F4E0
:10465800006A049309EB060E1EF80430019A52F81A
:1046680023306BB11E447B1B9E42F3D909EB070034
:10467800514604F081FE07447B1B9E42EAD97DE740
:10468800A34513D202990BEB06025B464A44414408
:1046980002E00133A34209D212F8010B11F801CF4D
:1046A8008445F6D0039A16441E44DCE7BBF1000F9C
:1046B80013D00BEB0601494408EB0B0202E0013B67
:1046C80043450AD0134611F8010D12F801CD84456F
:1046D800F5D0049BC6E75B4697E770460DF21C4D84
:1046E800BDE8F08F01234FF0000B0293FBE606AB09
:1046F8004FF0FF34019310E72DE9F0410D4609789A
:10470800044690B0002953D06A78002A00F08380CC
:10471800AB78002B50D0E878002800F083802B7904
:10472800002B57D02846FFF75DFE0646204646F484
:10473800007104F021FE86425CD8FE2E00F28780CC
:10474800801B271840226846711CFFF785FD7EB143
:104758006A1E5FFA86FC901912F8013F03F03F03C6
:104768004033A91A6B446144824203F8401CF3D1D8
:10477800013CA35D03F03F0340336B4413F8400C46
:104788000444A74203D23AE04444A74237D314F87A
:1047980006C020460CF03F0C0CF140030DEB030C57
:1047A800324629461CF8408C03F0B4FC0028EBD1B3
:1047B800204610B0BDE8F081007842EA014200E0EE
:1047C8000C4640EA0343611CA0B19A426078F7D1D5
:1047D800013CEDE722786AB1296809BA01E09942FB
:1047E8001ED0204642EA032314F8012F002AF6D1EE
:1047F800994215D00024204610B0BDE8F081BB5D79
:10480800B819002BF6D04FF4006104F0B5FD074449
:10481800BC42ADD9EEE710B0BDE8F04104F012BDDE
:10482800C41EC5E7120442EA016242EA03230146B4
:10483800207800E02C4640EA0102651C110200289D
:10484800D8D0B3EB022F6078F4D1023CB0E7014630
:1048580033462A46204610B0BDE8F041FFF7F0BDC8
:104868002DE9F04FADF5317D02AF7B62B1F90C3027
:10487800814698048A4608D4496E43F4005321F4CB
:104888000051AAF80C30CAF86410134613F8012B2B
:10489800FB637A64002A01F0C0800023C7F83890CF
:1048A8009946FB617B63BB613B623B63814B13F8B9
:1048B800028018F0080840F08180252A61D1454619
:1048C8004446F86B0278A2F12503411C552B64D8A5
:1048D800DFE813F05600630063006300630084059B
:1048E80063006300630063006300D100D100D1005E
:1048F800D100D100D100D100D100D100D100630096
:10490800630063006300630063006300DC0063000E
:1049180009056005DC00DC00DC006300630063005F
:104928006300A604630063006A0563006300630014
:1049380074056300630063006300AF0463006300F1
:104948007A0563006300630063006300DC006300B2
:104958000B050E07DC00DC00DC001D052905A6049C
:104968006300110541054F050C073105630063001D
:104978003505A204390563006300AF046300A2048F
:10498800F963DAF80430002B47DDDAF80030FA6B07
:10499800197812F8012C914234D07B6B43B17B6BB0
:1049A800D3F80080B8F1000F02D0404603F07EF83B
:1049B800386B07F52F77BD46BDE8F08FDAF804208D
:1049C800BC6B0EE0DAF800303A491A7801338A5C99
:1049D80011070ED5DAF8042009F10109013ACAE9EC
:1049E8000032002AEEDC5146204605F08BFF0028F5
:1049F800E8D0FB6B13F8012BFB637A64002A7FF481
:104A080055AFCAE70133CAF80030DAF8043009F1C3
:104A18000109013BCAF80430EBE75146B86B05F0D1
:104A280071FF0028B1D03B6B1BB1BAF80C305A06A5
:104A3800B3D57B6B002B01F0C8807B6BDE88002E22
:104A480000F085870024A1467B6BD3F80080A8F18D
:104A5800040555F8043F0134186803F027F82B685B
:104A6800B442C3F80090F4D14FF0FF333B63B8F180
:104A7800000F9AD19CE715F08F0F8ED104EB8404B8
:104A880002EB4404303C427808461CE70426F963EC
:104A9800DAF80430002B40F3D9836B0640F1E08349
:104AA800731E032B01F2E380DFE813F00E025B01B3
:104AB800A700060051E30008B86B02F05DFF631E13
:104AC8000268B3F5AE7FBA6040F2BE856FF4AE728D
:104AD800A31840F25D143B60002607F5AC735146FD
:104AE8009B46C246B046C7E9036645F4F0657B615C
:104AF8007E6008680278A2F12B0CBCF14E0F50D8EA
:104B0800DFE81CF01E034F001E034F004F007E031A
:104B180075007500750075007500750075007500E5
:104B280075004F004F004F004F004F004F004F00DF
:104B380024037300730073007B030A034F004F00C4
:104B4800B0024F004F004F004F0064034F0049036D
:104B58004F004F004F0042034F004F004F003103FA
:104B680017034F004F004F004F004F004F004F00FA
:104B780024037300730073007B030A034F004F0084
:104B8800B0024F004F004F004F0064034F0049032D
:104B98004F004F004F0042034F004F004F003103BA
:104BA8001703BB6893F800C0944513D1AB0511D522
:104BB80025F420753E61013C0BF8012B4A6809F188
:104BC8000109013A002A4A6040F320840130086054
:104BD800002C8ED1BE62BB6A4646D0468A46002B60
:104BE80000F0518225F480754DE22B05F2D518EBC3
:104BF8000A0FEFD125F4C075DDE7631EB3F5AE7F6C
:104C080007F5AC734FF0000888BF6FF4AE721E460C
:104C18007B61534694BF4FF0000B04EB020BCA466E
:104C280088BF40F25D14C1469846C7F828B0D7F847
:104C380020B045F45865D8F800201078A0F12B036F
:104C48004D2B63D8DFE813F03403620034036200AD
:104C58006200D203020202020202020202020202FD
:104C680002023A033A0362006200620062006200D4
:104C7800620062004E004E004E004E004E004E0094
:104C8800620062006200620062006200620062000C
:104C980062006200620062006200620062006200FC
:104CA8006200420362006200620062006200620009
:104CB800620062004E004E004E004E004E004E0054
:104CC80062006200620062006200620062006200CC
:104CD80062006200620062006200620062006200BC
:104CE80062004203BBF10A0F10DD25F4386506F8AF
:104CF800010BD8F80430013B002BC8F8043040F30E
:104D080092830132C8F80020013C94D14346E9055A
:104D1800C846C7F820B0D1469A4607D57B699E4257
:104D280000F2BA857B699E423FF437AE15F0100257
:104D380040F08B833B6A7969B86BFC693270A04795
:104D4800AA0600F178832B0700F14E856C0740F125
:104D5800BA86D7F824B05BF8043B1880C7F824B0AB
:104D680070E3002C08BF4FF0FF3415F0010600F087
:104D78008D8315F010037B6140F09785290640F17B
:104D88002586D7F824B05BF8043BBB62002B3FF4C0
:104D980004AE802002F082FE804600283FF449AE2F
:104DA800BB6A7A6B1860D58893889D4280F0E3844B
:104DB8001068BB6AC7F824B040F825307B6B013512
:104DC800DD802023C7F80C803B61DAF80030A24A66
:104DD8001B78D35C13F008035AD19B4607F5AC76D1
:104DE80002F0C4FD58453FF41EAEDAE9003213F86C
:104DF800011B013ACAF80030BB6906F80B10032BF7
:104E0800CAF804200BF1010B07F1500502D12B68F9
:104E1800042B04D0082200212846FFF71DFA324649
:104E28005B464146B86B009503F0F4F8421CB86144
:104E38003FF4F9AD002840F09D85C8F8000002F065
:104E480087FD002840F0B186D944013C7B69002BDE
:104E580040F06786BB6A08F10408002B00F0618601
:104E6800FB68A8EB03053B69B3EBA50F40F2C286CC
:104E7800D7F814B0DAF80430002B40F35D86DAF87E
:104E88000030754A1B78D35C1D0701D4002CA7D1CC
:104E98007B69002B7FF4ADADC8F80030BB6A002BEE
:104EA80000F03681FB683A69A8EB03018B100133E7
:104EB8009A4240F22D81BC6A0431206803F014FF45
:104EC800002840F0C18023E1002C08BF4FF0FF34D8
:104ED800E80740F1428315F010033B6140F0EE848F
:104EE8002906D7F824B040F17B855BF8043BFB60CA
:104EF800002B3FF452AD802002F0D0FD054600287B
:104F08003FF497ADFB687A6B1860B2F80680938817
:104F1800984580F01C841068FB687A6B40F828304C
:104F280008F10103D3802023C7F824B0BD607B605B
:104F38000026A846C7F82890A146BC6907F5AC7BAF
:104F480002F014FDB0423FF46EADDAE9003213F816
:104F5800011B013A032C0BF80610CAF80420CAF802
:104F6800003006F1010607F1480502D12B68042B31
:104F780004D0082200212846FFF76EF95A46334626
:104F88004146B86B009503F045F8421C04463FF4CF
:104F98004AAD002840F0C383C8F80000B86107F1A3
:104FA80050030822002118467B61FFF755F9D7E91D
:104FB8000532DFF8A8C0B86BDCF8E0C007F14001A3
:104FC800E047012800F04684002207F158039B5C63
:104FD800002B00F09385BB6A032C3344BB6200F0BE
:104FE8003D8409F1FF393B695BB9FB6808F10408A6
:104FF8003BB1BB68A8EB03057B68B3EBA50F40F298
:105008003384DAF804300026002B40F39083B9F19A
:10501800000F95D14546D7F82890BC613B69002B15
:105028007FF4E7AC2B60FB68002B71D0BB687A6813
:10503800E91A8B1001339A426AD9FC680431206856
:1050480003F052FE002863D0206061E0044B25F491
:10505800386533F91BB04AE651E300083C040020E8
:105068002CE30008BAF1000F40F0FD81002E40F05B
:10507800E58205F4E06CBCF5E06F00F01585BE62D2
:105088004646D0468A46731E012B40F27E8508F1BB
:10509800FF33062B40F2DC82EA0513D56B0500F1DD
:1050A80099851BF8011C0BF1FF33652909F1FF34C1
:1050B80002D0452940F00F835246B86BA1469B4663
:1050C80005F0E0FB15F010027FF493AC05F4C06323
:1050D800B3F5806F8BF8002000F0D783FB68002BB6
:1050E80040F0938300227969B86B05F0F5F8024621
:1050F8000B46EE07C7E90A23D7F824B040F1D4825B
:105108000A4601465BF8043BC3E90012C7F824B01D
:105118003B6B01333B636CE42B0503D518EB0A0F9B
:105128003FF468ADBAF1020F7FF454AD4FF0030AB3
:1051380041E5BAF1070F7FF44DAD4FF0080A3AE5A3
:105148002B067FF547AD25F0800534E52B0503D503
:1051580018EB0A0F3FF44EADB8F1010F7FF43AADEA
:105168004FF0020827E505F4186CBCF5807F7FF442
:1051780031AD012E7FF42EAD302645F400650BF8D5
:10518800016B013C002616E5BAF1060F7FF422AD4B
:105198004FF0070A0FE52B057FF51CAD05F4A06C51
:1051A800BCF5806F05D06B057FF514AD002E3FF47C
:1051B80066AFAB0504D43B69C7F804B0F31AFB60CB
:1051C80025F47865002645F4C075F4E4B8F1000FBD
:1051D80040F041812EB905F4E06CBCF5E06F00F0B9
:1051E8005D84BAF1010F03D0BAF1040F7FF4F2AC79
:1051F8000AF1010A5FFA8AFADDE42B05CED5F6E456
:10520800EB057FF5F4AC3B6825F080050136002BF3
:1052180040F04582013CD1E42A077FF4BEAB32E47A
:105228002E077FF4BAAB427845F002050846FFF72F
:105238004ABBF96345F4007510233B628F4B032684
:10524800FB61DAF80430002B3FF727AC5146B86B06
:1052580005F058FB00287FF4E6AB6B063FF520AC61
:10526800DAF8002086491378CB5C18077FF518AC6C
:10527800D7F838B007E0CAF8002081491378CB5C2A
:1052880019077FF50DACDAF8043009F10109013B83
:10529800002BCAF8043002F10102ECDC51465846F2
:1052A80005F030FB00287FF4BEABDAF80020E4E715
:1052B8002B067FF52BAD25F0800518E5714B33F9EA
:1052C8001BB0BBF1080F3FF710AD1FE505F4C06335
:1052D800B3F5007F7FF41AAD25F400754FF0100B7D
:1052E80045F4A06503E545F001050026F96345F09E
:1052F8004005FFF7CDBB2A077FF44FAB42786C2AF5
:1053080000F01F83084645F00105FFF7DCBA2B07BC
:105318007FF443AB4278682A00F00D83084645F0D5
:105328000405FFF7D0BA00233B62574B0326F96305
:10533800FB61FFF7ADBBF96345F408757CE702260E
:10534800F963FFF7A5BB0A233B624C4B0326F963BD
:10535800FB61FFF79DBB15F08F037FF41EAB7A6BE3
:10536800002A00F01D83427845F080050846FFF7C3
:10537800AABAEB0600F1AC812E0740F14083D7F8BA
:1053880024B0F9635BF8043B83F80090C7F824B0B5
:10539800FFF72FBBF96345F001050A233B623A4B3F
:1053A8000326FB61FFF774BBF96345F00105082389
:1053B8003B62324B0326FB61FFF76ABB0226F963A7
:1053C80045F00105FFF764BB07F1580003F0CEFE76
:1053D800012645F04005F863FFF75ABB2C437FF4DC
:1053E800DCAA427810250846FFF76DBA2B057FF531
:1053F8007EACBBF1000F03D14FF0080B45F40075EC
:10540800690540F1418125F4B06570E4B86BB96273
:1054180005F078FAB96A00287FF4DCAB002C7FF439
:1054280068ABFFF7D7BB4146B86B05F06BFA0028AD
:105438003FF46AAC6AE4D7F824B05BF8043B186020
:10544800C7F824B03B6B01333B637B69F61AB04461
:10545800C144FFF7CEBAB8F1020F7FF4C2AE4FF0E5
:105468000308FFF7A8BBBAF1030F3FF4C1AEBAF1C6
:10547800050F3FF4BDAEFFF7ADBB00BFE1A60008C6
:1054880051E300082CE300080DA40008E80600F129
:10549800CF8215F0800500F06682D7F824B05BF85B
:1054A800048BB8F1000F3FF478AA202002F0F6FA36
:1054B800054600283FF4BDAA7A6BC8F80000D688D4
:1054C80093889E4280F016811068C7F824B04FF088
:1054D800200B7B6B40F826800136DE80DAF800303E
:1054E800B5491A788A5C100700F1F0812E46DAF87F
:1054F8000420013ACAF804205A1CCAF800201B7874
:1055080005F8013BAB1BB8F1000F02D05B4580F0FA
:105518004D82013C0BD0DAF80430002B40F3808236
:10552800DAF80030A4491A788A5C1107DFD5A91B7C
:105538008944013100232B70B8F1000F3FF4E8AD26
:105548008B457FF6E5ADD8F8000003F0CDFB0028C9
:105558003FF4DEADC8F80000DAE5E80600F1B881EE
:1055680015F08005D7F824B000F044825BF8045B9E
:10557800BD62002D3FF411AA202002F08FFA0646E2
:1055880000283FF456AA7A6B28609388D5889D42F4
:1055980080F014811068BB6AC7F824B040F8253041
:1055A8007B6B0135DD802025DAF8002007F1580BE8
:1055B80013781BF80330002B3FF4EFA9B046C7F867
:1055C8001490D946AB463546BE6A4146DAF804001F
:1055D8000138CAF80400501CCAF80000107801F815
:1055E800010BA1EB050816B1D84580F0D880884694
:1055F800013C0BD0DAF80410002940F31A81DAF8DC
:105608000020117819F801100029DED14646A84675
:105618005D46D7F81490B6EB08083FF4BEA90023FE
:105628003370BB6A23B108F101018D4200F2428256
:105638003B6BC14401333B63FFF7DBB9BE624646AF
:10564800D0468A46FFF7CEBA00233B60FFF744BA3C
:10565800B8F1020F40F2E182B8F1030F3FF41CAD3C
:10566800A8F10404E4B26FEA0408BE6BD8441BF83E
:10567800011D5246304605F005F9D845F7D109F124
:10568800FF33A3EB040907E5BB6A25F4607513B182
:10569800013BBB62013409F10109FFF72ABB3B68F2
:1056A800013B3B60FFF78ABAAC0700F1A580D7E958
:1056B8000A23FBF747FC5BF8044B002840F0BE8246
:1056C800D7E90A01FAF768FFC7F824B020601FE598
:1056D800F963FFF78EB95246B86B05F0D3F8A9F114
:1056E80002041BF8021CABF10203E5E4F9635EE671
:1056F800F96352E64FF6F67293423FF69EA97A6B2B
:1057080008339BB210689900BB6203F0EDFA0028D9
:105718003FF493A97A6BBB6A10609380D5E6831C2B
:1057280040F09C82DAF80430002B3FF709AC514670
:10573800B86B05F0E7F800283FF469AC4546D7F8A0
:105748002890BC61002E3FF469ACFFF76CB94FF6A6
:10575800F67293423FF671A908339EB27B6BB10093
:10576800186803F0C1FA00283FF467A97B6B9E8094
:105778001860FFF7D1BB4FF6F67293423FF65DA96A
:1057880008339EB27B6BB100186803F0ADFA0028AD
:105798003FF453A97B6B9E801860FFF70ABB4FEA62
:1057A8004B0B2846594603F09FFA054600283FF45C
:1057B80040A9804430601BE751E300084FF6F672B9
:1057C80093423FF63AA908331FFA83F87B6B4FEAF6
:1057D8008801186803F088FA00283FF42EA97B6B2B
:1057E800A3F804801860D6E6D7F824B05BF8043B29
:1057F8001870C7F824B025E65BF8043BD7E90A120D
:10580800C3E90012C7F824B082E47C680A23B86BA5
:10581800611C04F0F7FDA346FB68C21A07F2AB232C
:105828009B4528BF07F2AA2B5846C04903F0E8FC5D
:1058380058E45146B86B05F065F800283FF4DFAE30
:105848004646A84646455D46D7F814907FF4E3AE31
:10585800FFF7E9B897F84020FFF7B7BB2B68042B90
:105868007FF4BFABFFF7BFBBB868D9001E4603F093
:105878003BFAB86000283FF4DCA8FA68730000EB34
:10588800050810607B60FFF7BCBB3B69B96A8B42B7
:10589800A3EB0102C2D125E416F8011C5246B86BED
:1058A800013E04F0EFFFFFF73DBA002207F1440381
:1058B80098463A61FA60BA62FFF787BA002307F19F
:1058C8004405C7E902337B60FFF732BB012131E6AB
:1058D800DAF8003007F1580B1A781BF80220002A72
:1058E8003FF45BA80133CAF80030DAF80430012C21
:1058F80003F1FF33CAF804301AD0BD6B10E0DAF8B0
:1059080000301A7801331BF802208AB1CAF8003037
:10591800DAF804300136013BB442CAF8043007D043
:10592800002BECDC5146284604F0ECFF0028E6D0BA
:10593800B144FFF75EB8827845F008050230FEF7FB
:10594800C2BF827845F002050230FEF7BCBF4FF0B7
:10595800FF333B637B6BD3F80080B8F1000F7FF413
:1059680024A8FFF725B8AB467E6AD84656F8045BEC
:105978007E62B3E5BB6902333FF47CAAD8F8000025
:1059880001F0E6FF002840F01081BB69D944032BE1
:105998007FF45BAA2B68042B7FF457AAFFF756BA4B
:1059A80082B0CDE9023302AB7B63DCE44FEA4B0BF8
:1059B80030465946BB6203F097F9064600283FF483
:1059C80038A8BB6AC8F80000C518A2E57E6A7B69DA
:1059D80056F8048BC7E90333BB627E62FFF7F5B95B
:1059E8003B695BF8045BC7E90133FB60C7F824B087
:1059F800FFF79EBA5BF8046BC7E909B5D4E56C07F5
:105A080040F1A780D7F824B0F9635BF8043BA3F80A
:105A18000090C7F824B0FEF7ECBF3A63FEF7C8BFA2
:105A28005146B86B04F06EFF00283FF479AD7EE56F
:105A3800DAF800303E491A788A5C11073FF578AFEA
:105A48000133CAF80030DAF80430012C03F1FF33CF
:105A5800CAF8043000F0FA800126BD6B13E0DAF8CA
:105A6800003033491A7801338A5C12073FF560AF7A
:105A7800CAF80030DAF804300136013BB442CAF8FB
:105A880004303FF455AF002BE9DC5146284604F0BA
:105A980039FF0028E3D0B144FEF7ABBF4FF001084F
:105AA80025F4F065FFF787B84FF0010A25F4F06593
:105AB800FFF781B818681C4603F016F900283FF470
:105AC800B7AD2060B4E515F001027FF4B4ACA907C6
