:020000040800F2
:1000000000C00020A5DA0008C9D10008CBD1000843
:10001000CDD10008CFD10008D1D1000800000000E8
:10002000000000000000000000000000D3D1000824
:10003000D5D1000800000000D7D10008D9D10008B0
:10004000EDDA0008EDDA0008EDDA0008EDDA000874
:10005000EDDA0008EDDA0008EDDA0008EDDA000864
:10006000EDDA0008EDDA0008EDDA0008EDDA000854
:10007000EDDA0008EDDA0008E1D10008EDDA000859
:10008000EDDA0008EDDA0008EDDA0008EDDA000834
:10009000EDDA0008EDDA0008EDDA0008EDDA000824
:1000A000EDDA0008EDDA0008EDDA0008EDDA000814
:1000B000EDDA0008EDDA0008EDDA0008EDDA000804
:1000C000EDDA0008EDDA0008EDDA0008EDDA0008F4
:1000D000EDDA0008F1D1000801D20008EDDA0008DD
:1000E000EDDA0008EDDA0008EDDA0008EDDA0008D4
:1000F000EDDA0008EDDA0008EDDA0008EDDA0008C4
:10010000EDDA0008EDDA0008EDDA0008EDDA0008B3
:10011000EDDA0008EDDA0008EDDA0008EDDA0008A3
:10012000EDDA0008EDDA0008EDDA0008EDDA000893
:1001300000000000000000000000000000000000BF
:1001400000000000000000000000000000000000AF
:10015000000000000000000000000000000000009F
:10016000000000000000000000000000000000008F
:10017000000000000000000000000000000000007F
:10018000000000000000000000000000000000006F
:10019000000000000000000000000000000000005F
:1001A000000000000000000000000000000000004F
:1001B000000000000000000000000000000000003F
:1001C000000000000000000000000000000000002F
:1001D000000000000000000000000000000000001F
:0401E0005FF8E0F1F3
:1001E8000348044B834202D0034B03B118477047BE
:1001F800BC090020BC090020000000000548064991
:100208000B1AD90F01EBA301491002D0034B03B11C
:1002180018477047BC090020BC09002000000000F6
:1002280010B5064C237843B9FFF7DAFF044B13B136
:100238000448AFF300800123237010BDBC090020DF
:100248000000000024FA000808B5044B1BB104495B
:100258000448AFF30080BDE80840CFE70000000085
:10026800C009002024FA000881F0004102E000BF24
:1002780083F0004330B54FEA41044FEA430594EA5E
:10028800050F08BF90EA020F1FBF54EA000C55EA99
:10029800020C7FEA645C7FEA655C00F0E2804FEA6A
:1002A8005454D4EB5555B8BF6D420CDD2C4480EA4C
:1002B800020281EA030382EA000083EA010180EA7C
:1002C800020281EA0303362D88BF30BD11F0004FCA
:1002D8004FEA01314FF4801C4CEA113102D0404200
:1002E80061EB410113F0004F4FEA03334CEA13333B
:1002F80002D0524263EB430394EA050F00F0A78053
:10030800A4F10104D5F1200E0DDB02FA0EFC22FA4D
:1003180005F2801841F1000103FA0EF2801843FA41
:1003280005F359410EE0A5F120050EF1200E012A32
:1003380003FA0EFC28BF4CF0020C43FA05F3C01870
:1003480051EBE37101F0004507D54FF0000EDCF1E9
:10035800000C7EEB00006EEB0101B1F5801F1BD392
:10036800B1F5001F0CD349085FEA30004FEA3C0C96
:1003780004F101044FEA445212F5800F80F09A808C
:10038800BCF1004F08BF5FEA500C50F1000041EB90
:10039800045141EA050130BD5FEA4C0C404141EB94
:1003A8000101013C28BFB1F5801FE9D291F0000F8F
:1003B80004BF01460020B1FA81F308BF2033A3F13E
:1003C8000B03B3F120020CDA0C3208DD02F1140C35
:1003D800C2F10C0201FA0CF021FA02F10CE002F170
:1003E8001402D8BFC2F1200C01FA02F120FA0CFC69
:1003F800DCBF41EA0C019040E41AA2BF01EB0451B2
:10040800294330BD6FEA04041F3C1CDA0C340EDCAF
:1004180004F11404C4F1200220FA04F001FA02F3F2
:1004280040EA030021FA04F345EA030130BDC4F1B0
:100438000C04C4F1200220FA02F001FA04F340EAA5
:100448000300294630BD21FA04F0294630BD94F056
:10045800000F83F4801306BF81F480110134013D3D
:100468004EE77FEA645C18BF7FEA655C29D094EAAE
:10047800050F08BF90EA020F05D054EA000C04BF2C
:100488001946104630BD91EA030F1EBF0021002017
:1004980030BD5FEA545C05D14000494128BF41F0B6
:1004A800004130BD14F580043CBF01F5801130BD1A
:1004B80001F0004545F0FE4141F470014FF00000A5
:1004C80030BD7FEA645C1ABF194610467FEA655C56
:1004D8001CBF0B46024650EA013406BF52EA0335F8
:1004E80091EA030F41F4002130BD00BF90F0000FE6
:1004F80004BF0021704730B54FF4806404F1320422
:100508004FF000054FF0000150E700BF90F0000FDA
:1005180004BF0021704730B54FF4806404F1320401
:1005280010F0004548BF40424FF000013EE700BFD1
:1005380042004FEAE2014FEA31014FEA02701FBF61
:1005480012F07F4393F07F4F81F06051704732F093
:100558007F4208BF704793F07F4F04BF41F40021EA
:10056800704730B54FF4607401F0004521F0004148
:100578001CE700BF50EA010208BF704730B54FF0D2
:1005880000050AE050EA010208BF704730B511F0D3
:10059800004502D5404261EB41014FF4806404F10B
:1005A80032045FEA915C3FF4D8AE4FF003025FEA91
:1005B800DC0C18BF03325FEADC0C18BF033202EB15
:1005C800DC02C2F1200300FA03FC20FA02F001FA6F
:1005D80003FE40EA0E0021FA02F11444BDE600BF12
:1005E8004FEA4102B2F1E04324BFB3F5001CDCF14D
:1005F800FE5C0DD901F0004C4FEAC0024CEA507085
:10060800B2F1004F40EB830008BF20F001007047B3
:1006180011F0804F21D113F13872BCBF01F00040B6
:10062800704741F480114FEA5252C2F11802C2F1E8
:10063800200C10FA0CF320FA02F018BF40F0010069
:100648004FEAC1234FEAD32303FA0CFC40EA0C001B
:1006580023FA02F34FEA4303CCE77FEA625307D158
:1006680050EA01331EBF4FF0FE4040F4400070478F
:1006780001F0004040F0FE4040F40000704700BF29
:100688004FF0FF0C1CEAD0521EBF1CEAD15392EA6D
:100698000C0F93EA0C0F6FD01A4480EA010C400249
:1006A80018BF5FEA41211ED04FF0006343EA5010A3
:1006B80043EA5111A0FB01310CF00040B1F5000FE5
:1006C8003EBF490041EAD3715B0040EA010062F194
:1006D8007F02FD2A1DD8B3F1004F40EBC25008BF7E
:1006E80020F00100704790F0000F0CF0004C08BF9C
:1006F80049024CEA502040EA51207F3AC2BFD2F169
:10070800FF0340EAC250704740F400004FF0000376
:10071800013A5DDC12F1190FDCBF00F000407047B0
:10072800C2F10002410021FA02F1C2F1200200FAEE
:1007380002FC5FEA310040F1000053EA4C0308BFB5
:1007480020EADC70704792F0000F00F0004C02BF06
:10075800400010F4000F013AF9D040EA0C0093F081
:10076800000F01F0004C02BF490011F4000F013BDB
:10077800F9D041EA0C018FE70CEAD15392EA0C0F49
:1007880018BF93EA0C0F0AD030F0004C18BF31F0B4
:10079800004CD8D180EA010000F00040704790F08A
:1007A800000F17BF90F0004F084691F0000F91F02E
:1007B800004F14D092EA0C0F01D142020FD193EAF4
:1007C8000C0F03D14B0218BF084608D180EA01007C
:1007D80000F0004040F0FE4040F40000704740F058
:1007E800FE4040F4400070474FF0FF0C1CEAD05226
:1007F8001EBF1CEAD15392EA0C0F93EA0C0F69D082
:10080800A2EB030280EA010C49024FEA402037D0EC
:100818004FF0805343EA111143EA10130CF00040E3
:100828008B4238BF5B0042F17D024FF4000C8B42D3
:1008380024BF5B1A40EA0C00B3EB510F24BFA3EBB3
:10084800510340EA5C00B3EB910F24BFA3EB910383
:1008580040EA9C00B3EBD10F24BFA3EBD10340EADD
:10086800DC001B0118BF5FEA1C1CE0D1FD2A3FF623
:1008780050AF8B4240EBC25008BF20F001007047D8
:100888000CF0004C4CEA50207F32C2BFD2F1FF037B
:1008980040EAC250704740F400004FF00003013AAC
:1008A80037E792F0000F00F0004C02BF400010F450
:1008B800000F013AF9D040EA0C0093F0000F01F064
:1008C800004C02BF490011F4000F013BF9D041EA86
:1008D8000C0195E70CEAD15392EA0C0F08D14202B9
:1008E8007FF47DAF93EA0C0F7FF470AF084676E78C
:1008F80093EA0C0F04D14B023FF44CAF08466EE765
:1009080030F0004C18BF31F0004CCAD130F0004232
:100918007FF45CAF31F000437FF43CAF5FE700BF8A
:100928004FF0FF3C06E000BF4FF0010C02E000BFB3
:100938004FF0010C4DF804CD4FEA40024FEA410355
:100948007FEA226C18BF7FEA236C11D001B052EA0B
:10095800530C18BF90EA010F58BFB2EB030088BFD1
:10096800C81738BF6FEAE17018BF40F00100704740
:100978007FEA226C02D15FEA402C05D17FEA236C22
:10098800E4D15FEA412CE1D05DF8040B704700BF69
:10099800844608466146FFE70FB5FFF7C9FF002800
:1009A80048BF10F1000F0FBD4DF808EDFFF7F4FF39
:1009B8000CBF012000205DF808FB00BF4DF808EDD2
:1009C800FFF7EAFF34BF012000205DF808FB00BFF5
:1009D8004DF808EDFFF7E0FF94BF012000205DF817
:1009E80008FB00BF4DF808EDFFF7D2FF94BF0120C8
:1009F80000205DF808FB00BF4DF808EDFFF7C8FFC1
:100A080034BF012000205DF808FB00BF4FEA400218
:100A1800B2F1FE4F0FD34FF09E03B3EB12620DD924
:100A28004FEA002343F0004310F0004F23FA02F08E
:100A380018BF404270474FF00000704712F1610F35
:100A480001D1420205D110F0004008BF6FF000400C
:100A580070474FF000007047002301461A461846B9
:100A680001F01EBC014B1868704700BF0000002051
:100A780038B5084B084D5B1B9C1007D0043B1D4440
:100A8800013C55F804399847002CF9D1BDE83840A5
:100A98000EF0CABF600001085C00010870B50D4E79
:100AA8000D4D761BB61006D0002455F8043B0134D2
:100AB8009847A642F9D1094E094D0EF0AFFF761BB3
:100AC800B61006D0002455F8043B01349847A642D6
:100AD800F9D170BD54000108540001085C000108F8
:100AE80054000108830730B548D0541E002A3FD06F
:100AF8000346CAB201E0013C3AD303F8012B9D0733
:100B0800F9D1032C2DD9CDB245EA05250F2C45EA9C
:100B1800054536D9A4F1100222F00F0C03F1200E7E
:100B2800E6444FEA121C03F1100242E9045542E977
:100B3800025510327245F8D10CF1010214F00C0F75
:100B480003EB021204F00F0C13D0ACF1040323F0F2
:100B580003030433134442F8045B9342FBD10CF0C3
:100B680003042CB1CAB21C4403F8012B9C42FBD1EC
:100B780030BD64461346002CF4D1F9E70346144609
:100B8800BFE71A46A446E0E70EB44FF40172F0B589
:100B98009CB021AD55F8047BADF814200290069066
:100BA80000F090F8002604464FF6FF7C0A4B0B49EC
:100BB8000A933A462B46086802A901950E961396A1
:100BC800ADF816C00394079400F0BAFA1CB0BDE85B
:100BD800F04003B0704700BF610C0008000000201F
:100BE8000CB44FF40173F0B59DB022AD064608462B
:100BF80055F8047BADF814300291069100F062F8C4
:100C0800002104462B4601954FF6FF750E9113916E
:100C180007493A460A91304602A9ADF8165003949E
:100C2800079400F08DFA1DB0BDE8F04002B070479F
:100C3800610C000810B50C46B1F90E1004F020FB49
:100C4800002803DB236D0344236510BDA38923F427
:100C58008053A38110BD00BF002070472DE9F041EB
:100C68000C46B1F90C101F46CB05054616460BD4A9
:100C780021F48051A1813B4632462846B4F90E1032
:100C8800BDE8F04101F08CBAB4F90E10022300223D
:100C980003F088F8B4F90C10EAE700BF10B50C4669
:100CA800B1F90E1003F07EF8A389421C0EBF23F49D
:100CB800805343F480532065A38110BDB1F90E1011
:100CC80001F020BB20F0030110F00300C0F1000088
:100CD80051F8043B00F1040C4FEACC0C6FF0000211
:100CE8001CBF22FA0CF213434FF0010C4CEA0C2CF7
:100CF8004CEA0C4CA3EB0C0222EA030212EACC12D7
:100D080004BF51F8043B0430F4D0C2F1000102EAF8
:100D18000102B2FA82F2C2F11F0200EBD200704760
:100D28002DE9F04F012B1D4681460F469046ADF246
:100D38001C4D40F24781012300219C464FF0FF34AF
:100D48001A4606E019460122A3EB040C8B189D42B3
:100D580010D908EB0400805C18F803608642F1D3D0
:100D680000F081804FF0010C62460C4661448B18FC
:100D78009D42EED8CDF808C04FF0010C00204FF08E
:100D8800FF366146634606E018460121A3EB060CD0
:100D980043189D420FD908EB010218F803E0925D51
:100DA8009645F1D865D04FF0010C6146064660447F
:100DB80043189D42EFD8013604F1010BB34502D820
:100DC800B346CDF808C005AB0DF2144243F8045FF2
:100DD8009342FBD1002D00F0FA806C1E06AE08F19C
:100DE800FF3208EB0400019612F8011FD3432B448D
:100DF8004344904246F82130F6D1029E5A46404676
:100E080008EB060103F0DEFB002840F083800BF1BD
:100E1800FF3305938246AB1B0646039309EB060E88
:100E28001EF80430019A52F8233043B3BAF1000F88
:100E380004D0029A9342039A38BF13464FF0000A2F
:100E48001E447B1BB342E9D209EB070045F400615D
:100E580004F0FAFD07447B1BB342DFD200200DF2F9
:100E68001C4DBDE8F08F94450ABF01220132614450
:100E78006CE761450ABF40180131012188E7D34575
:100E88005B4638BF5346A34214D2591E9A194144AF
:100E98004A4402E00133A3420CD212F8010B11F8C4
:100EA80001CF8445F6D0CBF1010216444FF0000A79
:100EB8001E44C6E7D345059B7DD90BEB06024A4481
:100EC80008EB0B01CDF810B002E0534516D00346ED
:100ED80012F8010D11F801CD03F1010B844503F15E
:100EE800FF30F2D05B46DDF810B00AF1010A9A45EE
:100EF8000BD8029BDDF80CA01E44A2E753460AF16A
:100F0800010A9A45DDF810B0F3D970460DF21C4D70
:100F1800BDE8F08FA5EB0B035B4538BF5B460026A9
:100F28000BF1FF3202920133CBF10102039245F437
:100F3800006A049309EB060E1EF80430019A52F871
:100F480023306BB11E447B1B9E42F3D909EB07008B
:100F5800514604F079FD07447B1B9E42EAD97DE7A0
:100F6800A34513D202990BEB06025B464A4441445F
:100F780002E00133A34209D212F8010B11F801CFA4
:100F88008445F6D0039A16441E44DCE7BBF1000FF3
:100F980013D00BEB0601494408EB0B0202E0013BBE
:100FA80043450AD0134611F8010D12F801CD8445C6
:100FB800F5D0049BC6E75B4697E770460DF21C4DDB
:100FC800BDE8F08F01234FF0000B0293FBE606AB60
:100FD8004FF0FF34019310E72DE9F0410D460978F1
:100FE800044690B0002953D06A78002A00F0838024
:100FF800AB78002B50D0E878002800F083802B795C
:10100800002B57D02846FFF75DFE0646204646F4DB
:10101800007104F019FD86425CD8FE2E00F287802C
:10102800801B271840226846711CFFF75BFD7EB1C4
:101038006A1E5FFA86FC901912F8013F03F03F031D
:101048004033A91A6B446144824203F8401CF3D12F
:10105800013CA35D03F03F0340336B4413F8400C9D
:101068000444A74203D23AE04444A74237D314F8D1
:1010780006C020460CF03F0C0CF140030DEB030CAE
:10108800324629461CF8408C03F09CFA0028EBD124
:10109800204610B0BDE8F081007842EA014200E045
:1010A8000C4640EA0343611CA0B19A426078F7D12C
:1010B800013CEDE722786AB1296809BA01E0994252
:1010C8001ED0204642EA032314F8012F002AF6D145
:1010D800994215D00024204610B0BDE8F081BB5DD0
:1010E800B819002BF6D04FF4006104F0ADFC0744AA
:1010F800BC42ADD9EEE710B0BDE8F04104F060BBEA
:10110800C41EC5E7120442EA016242EA032301460B
:10111800207800E02C4640EA0102651C11020028F4
:10112800D8D0B3EB022F6078F4D1023CB0E7014687
:1011380033462A46204610B0BDE8F041F0E500BF2E
:101148002DE9F04FADF52F7D0793B1F90C308B46A3
:101158009904814609D443F40053ABF80C30DBF80A
:10116800643023F40053CBF8643092461AF8012B0C
:101178001192002A00F0BD860023CDE902A398460B
:10118800CA467E4F08930993069317F8029019F000
:10119800080972D1252A5FD14E464D460298027839
:1011A800A2F12503411C532B62D8DFE813F0540049
:1011B8006100610061006100330461006100610049
:1011C80061006100AA00AA00AA00AA00AA00AA0059
:1011D800AA00AA00AA00AA006100610061006100DB
:1011E800610061006100610061006100FA03B500FF
:1011F8006100B5006100610061006100C603610023
:101208006100CE036100610061006100610061005E
:1012180061006100960361006100F20361006100F2
:1012280061006100610061006100ED031406B50012
:10123800B500B50011041A046100610021046100C1
:10124800D7031206030461006100070461000A0461
:101258006100610096030291DBF80430002B39DD50
:10126800DBF80030029A197812F8012C914226D046
:1012780003980DF52F7DBDE8F08FDBF804200DE015
:10128800DBF800301A780133BA5C12070ED5DBF8A8
:10129800042008F10108013ACBE90032002AEFDC0A
:1012A8005946504605F0CEFF0028E9D0029B13F8B6
:1012B800012B02931192002A7FF467AFD8E701331C
:1012C800CBF80030DBF8043008F10108013BCBF81B
:1012D8000430EBE75946504605F0B4FF0028BFD06C
:1012E800039A002A00F06586BBF80C3013F0400F13
:1012F80018BF4FF0FF32039203980DF52F7DBDE81C
:10130800F08F16F08F0FB3D105EB850502EB45057D
:10131800303D4278084643E704240291DBF8043064
:10132800002B40F3E78272060FD5631E032B00F2F1
:101338008386DFE813F02B01ED006701250059468D
:10134800504605F07FFF0028CAD1DBF8002013784B
:10135800FB5C1B07E9D5DBF8043008F10108013B09
:10136800002BCBF8043002F10102E8DDCBF80020B5
:101378001378FB5C1B07D8D5EDE700BF69FA0008B6
:10138800504602F007FD6B1E0268B3F5AE7F0C9263
:1013980040F292836FF4AE72AB1840F25D150E9373
:1013A800002304930F930D9305930B935B4656AA62
:1013B800CB461446994646F4F0660A92D9F80020BE
:1013C8001078A0F12B0EBEF14E0F50D8DFE81EF0BA
:1013D800E4014F00E4014F004F00770299009900A3
:1013E80099009900990099009900990099004F0077
:1013F8004F004F004F004F004F004F00DD014F00DE
:101408004F004F00570250024F004F0002024F009A
:101418004F004F004F00EA014F004F004F004F00B0
:101428004F00D6014F004F004F004F00CF014F0033
:101438004F004F004F004F004F004F00DD014F009D
:101448004F004F00570250024F004F0002024F005A
:101458004F004F004F00EA014F004F004F004F0070
:101468004F00D6014F004F004F004F00CF010C9B9B
:1014780093F800E0864517D1B30515D5059B26F4EA
:1014880020760B93013D04F8010BD9F8040008F10C
:10149800010801380028C9F8040040F3D382501C21
:1014A800C9F80000002D89D14B46D9469B46059BBB
:1014B800002B40F0FB82049B013B012B40F26A8524
:1014C80009F1FF33062B00F29981B9F1020F40F2BE
:1014D8009485B9F1030F00F09181A9F104095FFA2D
:1014E80089F96FEA0905254414F8011D5A46504642
:1014F80005F068FEA542F7D108F1FF38A8EB090806
:101508007CE1049B13EB0B0FCED126F4C076B9E730
:10151800002D08BF4FF0FF35F10700F1D082F1062A
:1015280040F18783DBF800301A78BA5C12073FF580
:10153800BDAE0133CBF80030DBF80430012D03F1E8
:10154800FF33CBF8043008BF08F101083FF4AEAE12
:10155800012411E0DBF800301A780133BA5C160771
:1015680012D4CBF80030DBF804300134013BA5423B
:10157800CBF8043000F09C84002BEBDC5946504635
:1015880005F060FE0028E5D0A0448FE6002D08BFD6
:101598004FF0FF35F10700F19183F00640F1F88232
:1015A800DBF800300DF158091A7819F80220002AE2
:1015B8003FF45EAE0133CBF80030DBF80430012D88
:1015C80003F1FF33CBF8043012D1DDE7DBF800304C
:1015D8001A78013319F80220002AD5D0CBF8003048
:1015E800DBF804300134013BA542CBF80430CBD002
:1015F800002BEBDC5946504605F024FE0028E5D0C8
:10160800A04453E66B1EB3F5AE7F40F252826FF4EE
:10161800AE72AB1840F25D15059356AB4FF000095A
:101628001C465946C346DDF8188046F458660A93A6
:101638000A681078A0F12B034D2B60D8DFE813F06F
:1016480062015F0062015F005F00F2013901390148
:1016580039013901390139013901750175015F0015
:101668005F005F005F005F005F005F004E004E009C
:101678004E004E004E004E005F005F005F005F00AE
:101688005F005F005F005F005F005F005F005F005A
:101698005F005F005F005F005F0068015F005F0040
:1016A8005F005F005F005F005F005F004E004E005C
:1016B8004E004E004E004E005F005F005F005F006E
:1016C8005F005F005F005F005F005F005F005F001A
:1016D8005F005F005F005F005F006801B8F10A0FFC
:1016E8000DDD26F4386604F8010B4B68013B002B2E
:1016F8004B6040F3B28101320A60013D98D1F20596
:10170800CDF81880D8468B4607D50A9B9C4200F234
:10171800BA830A9B9C423FF4ABAD16F0100240F02E
:10172800AD81069B50460A99089D2270A847B306CA
:1017380000F19C81750700F1698316F0010240F001
:101748009581B10740F19281AF4B08995046994273
:10175800069B0A9900F0328405F06AFB02460B46A4
:10176800079951F8040BC0E90023079183E1BBF105
:10177800070F7FF499AE4FF0080B83E6BBF1060F15
:101788007FF492AE4FF0070B7CE6049B012B7FF4AD
:101798008BAE0223049375E631067FF585AE26F0FD
:1017A80080066FE6049B002B40F06D81059B2BB9EA
:1017B80006F4E06EBEF5E06F00F07D83BBF1010F2B
:1017C80003D0BBF1040F7FF46FAE0BF101035FFA96
:1017D80083FB57E6BBF1000F40F05C81059B002BB3
:1017E80040F0618106F4E063B3F5E06F00F06983CF
:1017F800049BCB46013B012B40F2CC83F00512D56C
:10180800710500F1E48314F8011C631E652908F1D1
:10181800FF3502D0452940F0D2825A465046A846A4
:101828001C4605F0CFFC16F010027FF43FAD06F41D
:10183800C063B3F5806F227000F02D830D9B002BE1
:1018480040F00683002250460A9905F0ADF8F207E9
:1018580004460D4602D4B30740F1DE82079B53F8D5
:10186800042BC2E900450793039B013303931DE54D
:10187800BBF1020F7FF418AE4FF0030B02E606F43B
:10188800A06EBEF5806F06D073057FF50DAE059B83
:10189800002B00F07A83B10504D4059B0B990F94B3
:1018A8005B1A0D93002326F4F06646F4C076059380
:1018B800E8E5564B26F4386633F9188013E7F30544
:1018C8007FF51FAE059B26F08006013305930E9B1E
:1018D800002B40F0AA81013DD7E5029146F400763D
:1018E80010230693484B03240893DBF80430002B9D
:1018F8003FF719AD5946504605F0A4FC00283FF4BF
:1019080012ADEDE433067FF5FAAE26F08006EAE67E
:1019180006F4C063B3F5007F7FF4F1AE26F40076D9
:101928004FF0100846F4A066DDE6384B33F918800E
:10193800B8F1080F3FF7D5AEE1E634077FF498AC6D
:10194800427846F0020608462AE4029146F001066B
:10195800082306932C4B03240893DFE4F30600F1D5
:101968002B82750700F16B82F40700F1C582B0077E
:1019780040F1C282079B029153F8041B4FEAE872B8
:10198800C1E90082079391E40024029146F04006E1
:10199800C4E416A803F08AFE012446F0400602902B
:1019A800BCE4029146F001060A230693184B03246F
:1019B8000893B3E4029146F4087691E70224029171
:1019C800ACE40A230693104B032402910893A5E480
:1019D80032077FF44DAC427846F004060846FFF71C
:1019E800DFBB002306930A4B03240291089395E476
:1019F80033077FF43DAC42786C2A00F053820846E6
:101A080046F00106FFF7CCBBB16F000844FA0008A6
:101A1800516C000835437FF42BAC427810260846F9
:101A2800FFF7BEBB33057FF55EAEB8F1000F03D1FB
:101A38004FF0080846F40076730540F1B38126F4A8
:101A4800B06650E64946504605F0FCFB00287FF496
:101A58002BAD002D7FF4B2AC26E55046049105F07D
:101A6800F1FB049900283FF448AE48E6079B53F879
:101A7800042B10600793039B013303930A9BE41A1A
:101A8800A144C84412E4049B022B7FF497AE0323BD
:101A98000493F7E4BBF1030F3FF497AEBBF1050FD6
:101AA8003FF493AE00E54B46D9469B4626F4807634
:101AB80001E500230593B0E500230E9370E416F0CA
:101AC800100909BF079B11AE53F8046B0793DBF8A5
:101AD80000301B78FB5C13F008044ED1CDE9049567
:101AE80002F030F9A0423FF4FBABDBE9003213F817
:101AF800011B013ACBF80030099BCBF80420032BDB
:101B080056AA115504F1010914AD02D12B68042B12
:101B180004D0082200212846FEF7E4FF56AA4B46C7
:101B280031465046009502F099FC421C09903FF45A
:101B3800D7AB002840F0CB81306002F0D5F8002800
:101B480040F0F581C844059B013B0593049B002B9D
:101B580040F0048299460436DBF80430002B40F349
:101B6800D481DBF800301B78FB5C180703D4059B95
:101B78000BB14C46B4E7DDF81090B9F1000F7FF4D3
:101B880095AB039BC6F8009001330393FFF78EBB18
:101B9800DBF80020079913780DF1580951F8046B08
:101BA80019F803300491002B3FF462AB3446DBF89C
:101BB8000430012D03F1FF33CBF8043002F10103A7
:101BC800CBF80030137804F8013B21D0354412E0FB
:101BD800DBF800301A7819F80220CAB1DBF80420C3
:101BE800013ACBF804205A1CCBF800201B7804F8E3
:101BF800013BAC420CD0DBF80430002BE8DC594642
:101C0800504605F01FFB0028E2D0A6423FF468AB1F
:101C1800A61B3FF42DAB049BB0440793039B0133F1
:101C2800039300232370FFF741BB0E9B013B0E93E8
:101C38002BE4DBF80020079C137854F8046BFB5C5A
:101C4800B146180731D4DBF80430012D03F1FF3316
:101C5800CBF8043002F10103CBF80030137809F80F
:101C6800013B00F0B181354412E0DBF800301A780E
:101C7800BA5C110716D4DBF80420013ACBF804202B
:101C88005A1CCBF800201B7809F8013BA94509D05C
:101C9800DBF80430002BE8DC5946504605F0D2FA50
:101CA8000028E2D0A9EB0606B044039B0794013351
:101CB8000393002389F80030FFF7F8BA16F01003F1
:101CC8000B9340F0A080079B53F8042B04920793D2
:101CD8000026A946099DCDF8148002F033F8B042D9
:101CE8003FF4FEAADBE9003213F8011B013ACBF8F6
:101CF8000420032D56AA9155CBF8003006F10108AF
:101D080012AC02D12368042B04D0082200212046FB
:101D1800FEF7E8FE56AA434650460499009402F09E
:101D28009DFB421C05463FF4DBAA002855D1049BC5
:101D38000990186014AB0822002118460A93FEF790
:101D4800D1FEDDE90923DFF8E4C25046DCF8E0C043
:101D580010A9E047012800F08E80002216AB9B5C9A
:101D6800002B00F0FE80059B032D4344059300F0F3
:101D7800858009F1FF390B9B13B9049B0433049345
:101D8800DBF804300026002B30DDB9F1000FA4D1B8
:101D9800DDF8148009950B9B002B7FF487AA049A21
:101DA800136061E5059B26F4607613B1013B05934A
:101DB800013509F1010998E40291FFF777BA5A460B
:101DC800504605F0FFF9A8F1020514F8021CA31EFD
:101DD80023E50291BCE50291E6E5831C40F01D81F4
:101DE800DBF804304646002B3FF777AF594650469C
:101DF80005F028FA0028C8D0DDF814800995002ECF
:101E0800C9D0FFF76DBA11AB049361E7079B53F88C
:101E1800042B108007932EE602460B460AF07EFC40
:101E2800DDF81C9059F8046B002840F0DF8020464C
:101E38002946FEF7D5FBCDF81C90306014E5079BCA
:101E4800029153F8042BA2F800800793FFF72EBAEB
:101E58000F9C0A235046611C04F0F6FE0D9BC21A23
:101E68000DF2AB239C4228BF0DF2AA2420467049EC
:101E780003F084FCE6E49DF840206FE72368042B18
:101E88007FF477AF77E714F8011C5A465046013CB7
:101E980005F098F93DE40B9B05998B42A3EB0102F1
:101EA800DED1CFE4827846F002060230FFF778B937
:101EB800A844FFF7FBB9012326F4F0660493FFF763
:101EC800E1BA4FF0010B26F4F066FFF7DBBA099B85
:101ED80002333FF441AE306801F006FF38BB099B7E
:101EE800C844032B7FF42FAE2B68042B7FF42BAE52
:101EF8002CE60392FFF7BCB9079B029153F8042B19
:101F0800C2F800800793FFF7D1B95946504605F04B
:101F180099F900283FF425AE4B46DDF81090002BC8
:101F28007FF4DEA9B9F1000F7FF4C0A929E64B467A
:101F3800DDF81090002B3FF420AE56AB1C44C3F1E3
:101F4800010514F801195A46504605F03BF9E542D7
:101F5800F7D1B9F1000F7FF4A9A912E64FF00009F3
:101F6800FAE544460995DDF81480002C3FF413AFD8
:101F780056AB1E44C3F1010416F801195A465046DF
:101F880005F020F9F442F7D105E74B46D9469B46C0
:101F9800FFF791BA0A9DD146AC427FF669A914F8B9
:101FA800011D5A46484605F00DF9AC42F7D1FFF736
:101FB8005FB94FF0FF330393FFF75AB905F0E4F820
:101FC80002460B46FFF7CCBB08F101086DE60A9DF7
:101FD800D146AC427FF64CA914F8011D5A46484632
:101FE80005F0F0F8AC42F7D1FFF742B91148CDF847
:101FF8001C9003F0A1FB306036E40A9BD1469C425A
:102008007FF636A914F8011D5A46484605F0DAF855
:102018000A9B9C42F6D1FFF72BB9049B1B680993D6
:1020280001337FF487AE099A98E600BF3004002098
:10203800D8FE0008D4FE0008012D38BF012516F08F
:10204800010415D1F00674D4079C2B4654F8041BE0
:1020580001225046CDF800B005F012F900283FF4EF
:102068003FA9039B8044013307940393FFF71EB9EC
:1020780016F0100918BF00264FF0000408BF079B90
:10208800099A04BF53F8046B0793049201F05AFEAF
:10209800A0423FF425A9DBE9003113F8010B56AA49
:1020A8001055049A0139032ACBF80030CBF80410F4
:1020B80004F1010314AC02D12268042A06D00822D4
:1020C800002120460493FEF70DFD049B56AA3146D5
:1020D80050460094049302F0C1F90246501C3FF4A4
:1020E800FFA8049B002A3AD1B9F1000F01D1C6F824
:1020F80000909844013DB9F1000F00D10436DBF897
:1021080004300024002B31DD002DBED10992B9F135
:10211800000F3FF4A9ABFFF7C9B8DBF80020594618
:102128001A445046CBF800201C44ED1A05F08AF8F2
:1021380078B9DBF804309D42EFDC5B1BCBF8043048
:10214800DBF800302C441D44CBF80050A044FFF7C6
:10215800ADB8002C3FF4C4A8A044FFF7A7B8911C61
:1021680016D1DBF804101C4600298EDC594650466F
:10217800049205F067F8049A0028C5D00992002C4B
:102188007FF4AEA8B9F1000F3FF46EABFFF78EB83D
:10219800032A9844AED12368042BABD1ABE700BF28
:1021A80038B50C46114600228446074D20462A6061
:1021B8001A4664460BF048F8431C00D038BD2B681B
:1021C800002BFBD0236038BD0C0A002038B5334BF8
:1021D80005461B680C460BB19A6B12B3B4F90C3068
:1021E80018079AB225D5216900292DD012F00100CF
:1021F80007D000256069A5604042A06139B1002080
:1022080038BD950758BF6069A0600029F7D112064C
:1022180058BF0846F4D543F040034FF0FF30A38180
:1022280038BD184601F034FAB4F90C3018079AB2E0
:10223800D9D4D1062AD5520714D4216943F008030A
:10224800A3819AB20029D1D102F42070B0F5007FA1
:10225800CCD02146284601F0BBFDB4F90C302169E9
:102268009AB2C3E7216B51B104F14002914204D004
:10227800284601F07DFAB4F90C30002222630022CE
:10228800216923F02403C4E90012D7E7092243F0A7
:1022980040032A604FF0FF30A38138BD00000020C2
:1022A80070B5174C2568D5F84841DCB165681F2D15
:1022B80023DC80B14FF0010C04EB850ECEF88820AA
:1022C800D4F888610CFA05F216430228C4F888612C
:1022D800CEF808310BD06B1C02356360002044F83F
:1022E800251070BD05F5A674C5F84841DEE7D4F899
:1022F8008C311343C4F88C31EDE74FF0FF3070BDDB
:1023080040FA0008002238B5064D044608462A60FF
:102318000AF0A8FF431C00D038BD2B68002BFBD067
:10232800236038BD0C0A00202DE9F04F03690C69C1
:1023380085B0A342C0F28980013C01F11405A300D5
:1023480000F11408019355F8243058F8242001337B
:102358008A469A4208EB84018146B2FBF3F605EB04
:10236800840702913AD30021AE4640460A46A34666
:1023780003955EF8045B0468ABB206FB03132D0CEF
:10238800190C06FB05119BB2D21A1FFA84FC94445F
:102398008AB2C2EB144202EB2C421FFA8CFC4CEAC4
:1023A8000243774540F8043B4FEA11414FEA224285
:1023B800DFD2019B5C4658F80330039D73B9029B3A
:1023C800043B984504D307E0984504F1FF3403D251
:1023D80053F80429002AF7D0C9F810405146484656
:1023E80002F0F0FC00282CDB40460023013655F8AB
:1023F800041BD0F800C08AB29A1A1FFA8CFE0B0C84
:102408007244C3EB1C4303EB224392B242EA0342F9
:10241800AF4240F8042B4FEA2343E8D258F824206F
:1024280008EB84036AB9043B984504D307E0984550
:1024380004F1FF3403D253F80429002AF7D0C9F86D
:102448001040304605B0BDE8F08F002005B0BDE86B
:10245800F08F00BF2DE9F04F90469946016C99B076
:102468000446CDE90489259D41B10123426C93407E
:102478008B604A6002F0F6F900232364B9F1000A80
:10248800B4BF012300232B60754BBCBF2AF0004A60
:10249800CDF814A033EA0A0300F0AA80DDE904238A
:1024A8001046194600220023CDE90A010AF004F972
:1024B800074670B10123249A1360269B002B00F075
:1024C800E48268481860431E0393039819B0BDE876
:1024D800F08F16AB019317AB00932046DDE90A2372
:1024E80002F0C0FD5FEA1A56054640F09780DDE924
:1024F80016763E4406F23240202840F3B583C0F1F8
:1025080040000AFA00FA06F2124028FA00F04AEAF5
:102518000000FDF7EBFF0123013E0F93A1F1F871D5
:102528000022514BFDF7A4FE47A3D3E9002309F08D
:102538005BFE47A3D3E90023FDF79CFE80463046A7
:102548008946FDF7E3FF44A3D3E9002309F04CFED5
:1025580002460B4640464946FDF78CFE80468946B2
:102568000AF0F2F8002283460023404649460AF062
:10257800ADF8002840F07C82BBF1160F00F26B82A8
:10258800DDE90A01394B03EBCB03D3E900230AF059
:102598009DF8002870D00023BE1B0E93731E0BF10C
:1025A800FF3B069300F15E8200230993BBF1000F05
:1025B80069DA099BCDF81CB0A3EB0B030993CBF1A7
:1025C80000030D93229B4FF0000B092B64D8052BB9
:1025D80040F348830026043B2293229B023B032BB3
:1025E80000F26A86DFE813F05F045C0453043604E3
:1025F80042F20F73249ACAF3130A13605AEA0803C3
:102608001AD1269B002B00F06686194B03930833DA
:10261800269A0398136019B0BDE8F08FDDE90A1215
:10262800C2F31303084643F07F510F97A6F2FF3613
:10263800169F41F4401173E7269B002B40F0ED8371
:102648000C4B039341E700BF61436F63A787D23FF9
:10265800B3C8608B288AC63FFB799F501344D33F89
:102668000000F07FF1FE00080000F83F80FB000842
:10267800E4FE0008E0FE0008BE1B731E069300F18E
:102688008A840E900990069B5B44CDE9063B0023A3
:102698000D93229B092B9AD9002322934FF0FF33E5
:1026A8000126089300230C9623930021089B61645C
:1026B8001293204602F0B0F80390002800F0048638
:1026C800039B2364089B0E2B00F21481002E00F05C
:1026D80011810799002940F36084AF4B01F00F0284
:1026E80003EBC2030A46D3E900674FEA2118D10574
:1026F80040F11784DDE90A01A84B4FF0030AD3E93A
:10270800082309F09BFECDE9100108F00F08B8F185
:10271800000F13D0DFF8849218F0010F09D0D9E91F
:1027280000233046394609F05FFD06460F460AF198
:10273800010A5FEA680809F10809EDD1DDE910012D
:1027480032463B4609F07AFE804689460E9B43B1E5
:10275800002240464946924B09F0B8FF002840F055
:1027680035855046FDF7D2FE42464B4609F03CFD02
:102778008C4B0022FDF77EFDA1F15073CDE91001CD
:102788001193089B002B00F09780079B1493089BDC
:1027980013930C9B002B00F0A984139A7E4B002006
:1027A80003EBC20353E902237F4909F047FEDDE941
:1027B8001023FDF75DFDCDE910014946404609F0BB
:1027C800C3FF0746FDF7A2FE02460B4640464946B0
:1027D800FDF74EFDDDE91023039E303706F8017B37
:1027E8008046894609F072FF002840F02E85CDF812
:1027F80054B00027DDE910AB1095139D13942AE01F
:102808000137AF4280F22E85504659460022674B69
:1028180009F0EAFC0022654B82468B464046494651
:1028280009F0E2FC8946804609F08EFF0446FDF770
:102838006DFE02460B4640464946FDF719FD303409
:1028480052465B4606F8014B8046894609F03EFF32
:10285800002840F0F88442464B4600205049FDF7D6
:1028680007FD52465B4609F031FF0028C8D0DDE974
:102878001343109D039A079302E0964200F0CD841B
:10288800B24616F8013D392BF7D00133DBB233706D
:10289800079B01330793C8E15046FDF737FE4246D0
:1028A8004B4609F0A1FC3F4B0022FDF7E3FCA1F1E8
:1028B8005073CDE9100111934046494600223C4B24
:1028C800FDF7D6FCDDE910894B46424606460F4621
:1028D80009F01AFF8146002840F0AF84DDE91001B5
:1028E800024601F100433046394609F0EFFE002860
:1028F80040F04883179B002BC0F28C80079A0E2A61
:1029080000F38880244B03EBC203D3E900AB239B7D
:10291800002B1BDA089B002B18DC40F031830022C7
:10292800234B5046594609F05FFC02460B46DDE949
:102938000A0109F0D5FEDDF820904E46002800F087
:10294800CA82239BDDF80C80DF43CCE25246DDE9E6
:102958000A785B463846414609F070FD09F0F4FEF6
:1029680081460990FDF7D2FD52465B4609F03CFCD2
:10297800039E0B46024641463846FDF779FC09F1AD
:10298800300306F8013B089B012B00F05F83069497
:1029980001271C4604952AE080FB000870FC00080B
:1029A8000000F03F00001C400000E03F0000244011
:1029B8000000144052465B464046494609F03EFD39
:1029C80009F0C2FE0546FDF7A1FD52465B4609F037
:1029D8000BFC01370B46024649464046FDF748FCCA
:1029E80005F13003A74206F8013B00F02C830022D2
:1029F800AB4B09F0F9FB002200238046894609F019
:102A08005BFE0028D6D0049D069C079BB246013386
:102A180007930AE10C9A002A3DD0229A012A40F332
:102A28009F82089B03F1FF380D9B4345C0F27082DB
:102A3800A3EB0808089B002BC0F24083069A1A44AF
:102A48000692099A17461A4409920121204602F073
:102A58000BF8064623E00123BE1B0E93731E069354
:102A68007FF5A2ADC6F101030993002306939DE506
:102A78005846FDF74BFD42464B4609F01DFE00281F
:102A88007FF47AAD0BF1FF3B76E5864B0393039811
:102A980019B0BDE8F08FDDF83480099F0C9E002F37
:102AA8000CDD069900290B4608DDB942A8BF3B4654
:102AB800099AFF1AD21ACB1A099206930D9BE3B111
:102AC8000C9B002B00F06082B8F1000F10DD31463E
:102AD8004246204602F0A4F806462A4631462046D9
:102AE80001F0F0FF0346294620461D4601F0BAFED4
:102AF8000D9BB3EB080240F0DB820121204601F078
:102B0800B3FFBBF1000F814600F3B380229B012B7A
:102B180040F388814FF0000A0120BBF1000F40F01C
:102B2800B480069A104410F01F0000F09280C0F1A3
:102B38002003042B40F3D383099BC0F11C000344FA
:102B48000244099307440692099B002B05DD294698
:102B58001A46204602F0C0F80546069B002B05DD04
:102B680049461A46204602F0B7F881460E9B002BCC
:102B780040F03881089B002B40F31E810C9B002BF2
:102B880040F09F80079B013307930127DDF80C80F5
:102B9800DDF820A007E0294600230A22204601F09C
:102BA8006BFE0546013749462846FFF7BDFB5745EA
:102BB80000F1300308F8013BEDDB089A0027002AF2
:102BC800CCBF93464FF0010B039A93442946012248
:102BD8002046049302F080F84946054602F0F2F8D0
:102BE800002840F3AB811BF8013C039A0BF1FF3B33
:102BF80004E05A4500F0AD811BF8013D392B0BF17B
:102C0800010AF6D001338BF800304946204601F01E
:102C180029FE56B12FB1B74203D03946204601F0FC
:102C280021FE3146204601F01DFE2946204601F0CE
:102C380019FE0023079A8AF80030249B1A60269B05
:102C4800002B3FF442AC0398C3F800A019B0BDE8CC
:102C5800F08F1C20099B074403440993069B0344F7
:102C6800069371E70126B8E4C0F1200008FA00F0E5
:102C78004FE401465A46204601F0D2FF229B814686
:102C8800012B40F3B6814FF0000AD9F8103009EB58
:102C98008303186901F09CFEC0F1200041E700BFE2
:102CA80000002440F0FE0008314600230A22204696
:102CB80001F0E2FD129B0646002B40F3E982CDE9C4
:102CC8000783002F00F31D81BAF1000F40F0D9816E
:102CD800B046049B089903F00102039B0A921F4621
:102CE800013B1944229B08911343099349462846FE
:102CF800FFF71AFB31468346284602F063F842463E
:102D080049468246204602F07DF8C26801460BF12A
:102D18003003002A43D104902846069302F052F863
:102D2800024604992046049201F09CFD049A069BF1
:102D38001AB90999002900F09B82BAF1000FC0F274
:102D4800648122994AEA010A0A9951EA0A0100F0C3
:102D58005C81002A00F3B681089A07F1010A9742BC
:102D6800D3463B7000F0B481294600230A2220464E
:102D780001F082FD4645054631464FF000034FF00D
:102D88000A02204612D001F077FD4146064600238C
:102D98000A22204601F070FD57468046A6E72046E5
:102DA800049301F05FFD0122049BC6E701F064FD76
:102DB80057460646804699E7229B022B7ADC0C9BF5
:102DC800002B7FF47EAF079B4946013328460793C3
:102DD800FFF7AAFADDF80CB000F1300300270BF872
:102DE800013BF3E64946284601F0ECFF0028BFF610
:102DF800C1AE294600230A22204601F03DFD079B6B
:102E0800054603F1FF380C9B002B7FF44DAF129B56
:102E1800002B40F334820893B7E6B04B0393033397
:102E2800FFF7F6BBDDE9041200297FF473AEC2F3A5
:102E38001303002B7FF46EAEA94B1340002B00F058
:102E48000082099B4FF0010A01330993069B013365
:102E5800069361E601230C93239B079A134412936C
:102E68000133012B1F46B8BF012708930021172FF4
:102E780061647FF71EAC012204235B0003F1140098
:102E8800B842114602F10102F7D9616411E4012345
:102E98000C93239B002B4CDD1F4612930893E5E708
:102EA80000230C93D8E700230C93F2E7129BCDF88C
:102EB8001C800893089B002B7FF443AD49460522EC
:102EC800204601F0D9FC81462846494601F07AFFA0
:102ED80000287FF736AD31230398079F804600F816
:102EE800013B013703904946204601F0BBFC7B1C9F
:102EF800DDF80CA00793CDF80C80002E7FF491AE7E
:102F080093E631463A46204601F0E6FE0646DBE601
:102F18000D9BCDF83480A8EB03039B444FF00008C9
:102F280088E5DDE90A234FF0020ACDE91023FFF70F
:102F3800EEBB012323930893FFF7B7BB03D1049B90
:102F4800D8073FF550AEDA461BF8013D302BFAD0D2
:102F58005BE6079B039A013307933123137054E60A
:102F68000F9A002A00F0288103F23343069ADDF80D
:102F780034801A440692099A17461A44099264E55D
:102F88004FF000094E46DCE4294620460D9A01F030
:102F980047FE0546B1E50E9064E500F01181DDE9D4
:102FA8000A01079A4F4B564206F00F0203EBC20381
:102FB800D3E9002309F018F936118046894600F054
:102FC800708100234FF0020A474FF20706D5D7E970
:102FD800002309F009F901230AF1010A761007F123
:102FE8000807F2D1002B3FF4B1AB80468946FFF7C2
:102FF800ADBB049B002B7FF446AEDDE90412C2F39F
:103008001303002B3FF418AF3DE6002A12DD2946D2
:1030180001222046049301F05FFE4946054601F06F
:10302800D1FE0028049B40F31781392B00F0FB8068
:103038000BF13103BA46079A3746013246460792E2
:103048000AF8013BE1E50995069C049D02460B46FA
:10305800FDF710F952465B468046894609F054FB55
:1030680060B952465B464046494609F025FB0028B0
:103078003FF4CBAC099BD9077FF5C7AC039AFFF7A0
:10308800FFBB2046716801F0C7FB0746002800F027
:103098000C81336906F10C0102339A000C3001F0FF
:1030A800C5FA39460122204601F016FE804610E690
:1030B8002946204601F0B4FD05461EE5DDE9082352
:1030C8009F1AC2E4392B00F0AE80BA460133B2E74A
:1030D800079A374601324646079277E5E0FE000830
:1030E8000000F07F80FB000870FC0008DDF84CA0B1
:1030F8008349DDE9102301EBCA0151E9020109F016
:1031080073F8CDE910014946404609F01DFB064613
:10311800FDF7FCF90B46024649464046FDF7A8F87C
:103128005346039F3036012B8046894607F8016BCA
:1031380000F0AC80139E039B1E440022714B404656
:10314800494609F051F88946804609F0FDFA824659
:10315800FDF7DCF902460B4640464946FDF788F87C
:103168000AF1300A07F801ABB74280468946E4D134
:10317800DDE910010022644BFDF77CF842464B461E
:1031880009F0A4FA002862D1DDE9102300205E4985
:10319800FDF76EF842464B4609F0B6FA00283FF4B0
:1031A800A9AB16F8013CB246302B06F1FF36F8D031
:1031B800149B0133079338E5169BC3F13603D5E614
:1031C8004FF0020ADDE90A89FFF7C0BA089B002B15
:1031D8003FF462AB129B002B7FF78CAB1393079BDA
:1031E8000022013B404649461493464B08F0FCFF39
:1031F800804689460AF10100FDF788F942464B46A8
:1032080008F0F2FF414B0022FDF734F8A1F15073AA
:10321800CDE910011193FFF7BCBA079B013307935F
:103228003123FFF734BB079BBB4601330793392390
:1032380037460BF8013B4646D7E44FF000094E46A7
:1032480049E69A4668E4109D139CB246B0E7149B81
:10325800039A0793FFF714BB7FF4ECAEDA077FF508
:10326800E9AEE2E6DDF854B0109D139CFFF742BBCF
:10327800392BD8D0BAF1000F3FF7DAAEDAE6229B45
:10328800022B3FF713AECDF81C809CE53E466FE756
:10329800229B022B3FF70AAE129BCDF81C800893A5
:1032A8000FE54FF0020AFFF751BA024640F2EA2151
:1032B800174B184807F0DEF90026204631466664A9
:1032C80001F0AAFA039078B900224FF4D571104B97
:1032D800104807F0CFF9104B0393FFF7F6B83FF407
:1032E80033ACC0F13C00B5E4039B012223644FF0EA
:1032F800FF33239612930C920893FFF7FBBA00BF93
:1033080080FB0008000024400000E03F00001C4053
:10331800F4FE000808FF0008E4FE0008B1F90C20DC
:10332800F8B50C461107074643D4636842F40062B7
:10333800002BA2815BDDA56A002D56D000233E68D4
:103348003B6093B212F4805255D101233846E169AB
:10335800A847421C65D0A389A56A5B0705D56368A1
:10336800C01A236B0BB1E36BC01A0246E169002354
:103378003846A847411C40D13B68002B3DD01D2B47
:1033880001D0162B54D10022A38923F40063A38112
:103398002369C4E90032216B3E6031B304F1400374
:1033A800994202D0384600F0E3F900231846236317
:1033B800F8BD2669CEB193B29A0718BF00232568D5
:1033C80008BF63692660AD1BA3600CE02B4632463C
:1033D800D4F824C03846E169E047B0F1000CA5EB09
:1033E8000C05664416DD002DF0DC0020F8BDE36B0B
:1033F800002BA0DCF9E7206DAFE70022B4F90C3010
:10340800626023F400632269A381DB042260C2D5D1
:103418002065C0E7A3894FF0FF3043F04003A38144
:10342800F8BD3B68002B96D01D2B06D0162B04D078
:10343800A38943F04003A381F8BD00203E60F8BD96
:1034480038B504460D4608B1836B1BB1B5F90C00BD
:1034580030B938BD00F01CF9B5F90C000028F8D0D7
:1034680029462046BDE83840FFF758BF38B5B8B1FF
:103478000F4B04461D680DB1AB6B4BB1B4F90C0092
:1034880000B938BD21462846BDE83840FFF746BF99
:10349800284600F0FDF8B4F90C000028F1D0F1E757
:1034A800044B05491868BDE8384000F0F9BB00BF77
:1034B8000000002040FA0008493400080020704746
:1034C800014900F0EDBB00BF8DA700080020704740
:1034D8002DE9F0470024032582460423DFF8A8C01D
:1034E800C0E9B8454568C0F83CC0DFF8A090DFF8EF
:1034F800A080284F284E00F53B70CAF8E802082241
:10350800EB602146C5E90044C5E904446C66AC603B
:10351800AC6105F15C00FDF7E5FA204BC5E90759F8
:10352800C5E90987EE62DAF808500822EB602146FF
:10353800C5E90044C5E904446C66AC60AC6105F1BA
:103548005C00FDF7CFFA164BC5E90759C5E90987AD
:10355800EE62DAF80C502146EB600822C5E9004417
:10356800C5E904446C66AC60AC6105F15C00FDF72C
:10357800B9FA0123C5E90759C5E90A76C5F82480CF
:10358800CAF83830BDE8F087C93400083D0C000897
:10359800650C0008A50C0008C50C0008090001000E
:1035A80012000200682270B54D1E02FB05F50E469A
:1035B80005F1740100F0ACFC044640B100210C3068
:1035C800C4E9016005F168022160FDF78BFA204625
:1035D80070BD00BF274B2DE9F0411E680746B36B4D
:1035E8005BB34FF0040806F53876D6E90134013BA1
:1035F80004D51EE05A1C04F168041AD0B4F90C5022
:10360800013B002DF6D11C4B08222946C4E9005580
:10361800C4E90253C4E904556566A56104F15C0078
:10362800FDF760FAC4E90C55C4E911552046BDE818
:10363800F08135682DB12E46D7E73046FFF748FFB1
:10364800CFE74FF4D671384600F062FC044668B103
:10365800056029460546C0F804800C304FF4D07246
:10366800A060FDF73FFA34602E46BEE70C233060B9
:103678003B60DBE740FA00080100FFFF024B03490B
:10368800186800F00DBB00BF40FA00088DA70008BD
:10369800836B03B170471BE7704700BF704700BFDB
:1036A800704700BF704700BF024B0349186800F01D
:1036B800D7BA00BF00000020C5340008024B0349F8
:1036C800186800F0CDBA00BF00000020D53400080B
:1036D800F8B50C46234F064601F09AF8BB685D68BA
:1036E800C4F57E6325F003050F332B4423F47F6371
:1036F80023F00F03A3F58054B4F5805F07DB0021A6
:10370800304601F0C1FFBB682B44984204D03046D4
:1037180001F080F80020F8BD3046614201F0B4FFA6
:1037280001300DD0104ABB682D1B45F001055D60C6
:10373800136830461B1B136001F06CF80120F8BDBC
:103748000021304601F0A0FFBA68831A0F2BDEDD96
:1037580043F001035360054B03491B68C01A086016
:10376800D5E700BF9C050020DC090020A409002043
:1037780000295ED0F8B50C46064601F049F854F821
:10378800042C784FA4F1080522F001016818D7F835
:1037980008C04368844523F0030300F08780D207FC
:1037A800436034D454F8082C07F10804AD1A1144C6
:1037B800AA68A24268D000EB030CDCF804E0D5F854
:1037C8000CC01EF0010FC2F80CC0CCF8082000F0A5
:1037D800918041F001036B600160B1F5007F31D247
:1037E8004A09CB08012191407A6801331143796075
:1037F80007EBC30257F83310083AC5E9021247F835
:103808003350CD603046BDE8F84001F003B8C21827
:103818005268D2070ED4194407F108048368A342FA
:1038280070D0C268DA60936041F001036B60695040
:10383800D3E7704741F00103B1F5007F44F8043C39
:103848000160CDD3B1F5206F4FEA512347D28B09E0
:1038580003F1390003F13802C300F818FB5808389F
:10386800984258D05A6822F003028A4202D99B68CB
:103878009842F7D1D868C5E9023085603046DD60E6
:10388800BDE8F84000F0C6BFC2185268D20763D43A
:103898000B44D0E90212CA60916043F001026A60E9
:1038A8003046EB50BDE8F84000F0B4BF0B44D107F8
:1038B80007D454F8082CAD1A1344D5E90212CA608B
:1038C800916043F001026A60274ABD6012689A421B
:1038D80098D8264B30461968FFF7FAFE92E7142B62
:1038E8000AD9542B1FD80B0B03F16F0003F16E029A
:1038F800C300B2E7194491E703F15C0003F15B02EE
:10390800C300AAE741F00103C7E90455C5E9024429
:103918006B60695076E70121921001FA02F279682A
:103928000A437A60A7E7B3F5AA7F06D8CB0B03F161
:10393800780003F17702C3008FE740F254529342B4
:1039480006D88B0C03F17D0003F17C02C30084E7E9
:103958004FF47E737E2280E741F001036B600160C3
:1039680050E700BF9C050020A8090020D8090020C6
:103978009368002B00F0B7802DE9F04FB1F90C30B7
:103988000C4619078046174683B098B225D5236997
:103998001BB310F002033D682DD04FF0000B5E46BC
:1039A800DFF8B8A2002E00F08B80564533465A4601
:1039B80028BF53464046E169D4F824C0E0470028B0
:1039C80040F38780BB6883441B1A361ABB60002B00
:1039D800E8D1002003B0BDE8F08F21464046FEF74D
:1039E800F5FB002840F03681B4F90C303D6898B2F8
:1039F80010F00203D1D110F0010976D14E46002E05
:103A08005AD08205D4F808B040F1B580B3455A467B
:103A180000F2CD8010F4906F00F0CB80236821690C
:103A2800A3EB010B636903EB430A0AEBDA7A0BF1A8
:103A380001034FEA6A0A33445345524684BF9A4603
:103A48005246430540F1EA801146404600F060FACC
:103A5800002800F0F9805A462169019000F0E6FD3F
:103A6800A289019B22F4906242F08002A28103EBBA
:103A78000B0023613246AAEB0B03B346C4F814A02B
:103A8800A3602060B24600264946019200F044FE39
:103A9800A3682168019AA3EB0B030A44A360226080
:103AA800B868D144A0EB0A00B860002891D0B4F9F6
:103AB8000C0080B2002EA4D1D5E9009608359EE707
:103AC800D5E900B608356DE721464046FFF7B8FC52
:103AD80080B3B4F90C304FF0FF3043F04003A381BA
:103AE80003B0BDE8F08F002070471E46AA469946ED
:103AF80018461D4656B3002832D04A462068216928
:103B0800B24228BF32468842636904D9A16803EBF0
:103B1800010B5A4574DC934265DC2A464046E1694C
:103B2800D4F824C0E047B0F1000BD2DDB9EB0B09A3
:103B3800CAD00120BB685D44A3EB0B03A6EB0B06C0
:103B4800BB60002B3FF445AF002ED4D10AF1080327
:103B580053F8046C9A4653F8085C0833002EF7D0E3
:103B680032460A21284600F0E5FC002869D00130D9
:103B7800A0EB0509C1E72068236998421BD863694F
:103B8800B34218D86FF0004CB44528BFB4469CFB2C
:103B9800F3FC4A4603FB0CF34046E169D4F824C021
:103BA800E047B0F1000A94DDA6EB0A0678E7B346D1
:103BB8003246206866E7B345DA4628BFB24649462A
:103BC800524600F0A9FDA3682268A3EB0A035244F9
:103BD800A3602260002BE7D121464046FFF730FC66
:103BE8000028E1D075E729469346019200F094FD3C
:103BF800A368019A9B1AA36023681A44226095E778
:103C080029465A4600F088FD236821465B44404611
:103C18002360FFF715FC002888D05AE7404601F0DA
:103C280045FB034600287FF422AF40462169FFF791
:103C38009FFD0C22B4F90C30C8F8002023F0800353
:103C480049E7721C914659E70C22B4F90C30C8F8C0
:103C5800002040E74FF0FF30BCE600BF00FCFF7FCC
:103C68002DE9F0410026884600F53877D7E9015458
:103C7800013D0ED4A389013D012B06D9B4F90E30BC
:103C8800013302D02046C04706436B1C04F1680488
:103C9800F0D13F68002FE9D13046BDE8F08100BF80
:103CA8002DE9F8434FF000090746884600F53876B5
:103CB800D6E90154013D10D4A389013D012B08D94F
:103CC800B4F90E30013304D021463846C04749EADA
:103CD80000096B1C04F16804EED13668002EE7D1A8
:103CE8004846BDE8F88300BF002100F001B800BFD6
:103CF800FF289DBF024BC05C00F008000020704701
:103D080069FA000842B110B510460B49144601F093
:103D1800BDFD18B9094810BD084870472046074935
:103D280001F0B4FD0028F5D02046054901F0AEFDAC
:103D38000028EFD0002010BD40FF00083CFF00081D
:103D4800D4FE0008014B93F8280170473004002086
:103D580041B110B508460C460A4901F097FD18B95B
:103D6800094810BD084870472046074901F08EFDF4
:103D78000028F5D02046054901F088FD0028EFD03D
:103D8800002010BD40FF00083CFF0008D4FE0008DA
:103D9800F030704700487047200500200048704701
:103DA8002005002038B50C46114600228446074DF0
:103DB80020462A601A46644609F05EFA431C00D081
:103DC80038BD2B68002BFBD0236038BD0C0A0020BF
:103DD8002DE9F0418B890C46990796B008D5012248
:103DE80004F14303C4E90432236016B0BDE8F0814E
:103DF800B4F90E100646002927DB6A4606F09EFD38
:103E0800002821DB019D4FF4806805F47045A5F575
:103E18000055B5FA85F54FF400676D0941463046FF
:103E280000F076F8B4F90C30F0B1204A43F0800382
:103E3800F263C4F81480A3812060206135BB3B4342
:103E4800A38116B0BDE8F081A38913F0800519D0CD
:103E58004FF0400830464146002500F059F82F46FB
:103E6800B4F90C300028E0D19A05BED4012123F022
:103E7800030304F1430243F00203C4E90421A381CC
:103E88002260B2E74FF480682F46C7E73046B4F99E
:103E98000E1007F08BF910B9B4F90C30CFE7A389ED
:103EA80023F0030343F001031BB2C8E7C934000839
:103EB80070B50C46B1F90E10154600291E4696B08D
:103EC80014DB6A4606F03AFD00280FDB019A4FF42E
:103ED800806302F47042A2F50052B2FA82F24FF403
:103EE8000060520932602B6016B070BD0023B4F92F
:103EF8000C10336011F0800004D0402218462A606C
:103F080016B070BD4FF480632B6016B070BD00BF53
:103F18002DE9F04F01F10B05162D064683B025D883
:103F2800102900F2B88000F073FC102518224FF019
:103F3800020CB74F3A445368A2F108018B4200F0D3
:103F4800B7805A68D96822F003021A449C68304640
:103F5800E1608C60516803F1080441F0010151608F
:103F680000F058FC204603B0BDE8F08F35F0070597
:103F780000F19180A94200F28E8000F049FCB5F56D
:103F8800FC7FC0F090816B0A00F08C80042B00F25B
:103F98006681AB0903F1390C03F138044FEACC0010
:103FA8009B4F384443680838984206D10CE00029F2
:103FB80080F22B81DB68984206D05A6822F003020F
:103FC800511B0F29F3DDA4463C69DFF848E274452C
:103FD8007AD0626822F00302531B0F2B00F3728120
:103FE800002BC7E904EE80F26381B2F5007F80F010
:103FF80015810121D30852090B4491407A6857F87A
:1040080033000A4307EBC3010839A060E1607A6016
:1040180047F83340C46001214FEAAC03994091420C
:1040280059D8114206D12CF0030C490011420CF169
:10403800040CFAD007EBCC0948466446D0F80C804B
:10404800404508D118E1002B80F21D81D8F80C807A
:10405800404500F01181D8F8042022F00302531BD8
:104068000F2BF0DD08EB050145F00105C8F80450F9
:104078003046D8E90264F460A66043F00104C7E959
:1040880004114C60C1E902EE48F8023000F0C2FBAE
:1040980008F1080402E00C2300243360204603B032
:1040A800BDE8F08F4FF400704FF0400C3F2477E7E5
:1040B800D3689A4208BF0CF1020C7FF442AF3C6906
:1040C800DFF850E1744584D101217A684FEAAC03E6
:1040D80099409142A5D9BC68636823F00308454517
:1040E80003D8A8EB05030F2B7FDCDFF82C91D7F85A
:1040F8000824D9F8003001322B4404EB080A00F0F8
:104108002B8103F580530F3323F47F6B2BF00F0BB8
:104118005946304601F0B8FA411C024600F0EB80DF
:10412800824500F2E680D9F8041059440B46C9F8D4
:10413800041000F04681D7F8081401311BBFA2EB28
:104148000A0A5344C7F80824C9F8043012F00703D0
:1041580000F00C81C3F108010A44C3F5805193446F
:104168000831A1EB0B01C1F30B0A5146304601920D
:10417800009301F089FA421CDDE9003200F0478122
:10418800831A03EB0A0BD9F804004BF001030AEB7E
:104198000001BC42BA60C9F80410536000F01D81E8
:1041A800B8F10F0F40F21B814FF0050C6368A8F1BE
:1041B8000C0020F0070003F00103034363600F289D
:1041C80004EB0003C3E901CC00F2288114465368CC
:1041D800D9F82C208A42D9F8302038BFC9F82C10D9
:1041E8008A4238BFC9F8301087E0621943F00103EA
:1041F80045F0010565603046BA600834536000F048
:1042080009FB204603B0BDE8F08FD9681A449DE643
:104218009C050020A4050020D8090020B2F5206FD5
:104228004FEA52235FD3142B00F2B28003F15C01F2
:10423800C9005B33781879580838884200F08F80B5
:104248004B6823F00303934202D989688842F7D167
:10425800C8687A68C4E902108460CC60DBE6142B75
:1042680059D9542B00F29C802B0B03F16F0C03F1EE
:104278006E044FEACC0093E60134A30700F108006E
:104288007FF4DCAE53E0444642445368D8F80C103F
:1042980043F00103536054F8083F3046D9608B60FF
:1042A80000F0B8FAFAE64FEAD50C05F1080240E644
:1042B80022445368304643F00103536000F0AAFAE1
:1042C8000834EBE6611945F00105656043F0010526
:1042D800C7E904113046C1E902EE4D60A35000F071
:1042E80099FA0834DAE6930903F13901C900383339
:1042F800A0E7BC425FD0BC68636823F0030B5D4550
:10430800ABEB050302D80F2B3FF76FAF304600F039
:1043180081FA0024C2E603F15C0C03F15B044FEA66
:10432800CC003DE659F808394B4540F095801CF023
:10433800030F0CF1FF3CF5D17B6823EA01037B6096
:10434800490099423FF6C7AE11B9C4E649000434A2
:104358001942FBD0A4466DE603F1100BD8E6012202
:104368009B109A407B681A437A6073E702EB0B0153
:104378004942C1F30B0A514630460193009201F0BD
:1043880083F9431CDDE900237FF4FAAE9A46FAE686
:10439800542B27D8130B03F16F01C9006E3349E77B
:1043A800B3F5AA7F27D8EB0B03F1780C03F1770458
:1043B8004FEACC00F4E5D9F804305B44C9F804307E
:1043C800B9E6CAF30B0000287FF4B5AEBC6808EB69
:1043D8000B0343F001036360FAE61446F8E6012391
:1043E800536093E7B3F5AA7F22D8D30B03F1780182
:1043F800C90077331EE740F25452934222D8AB0CDF
:1044080003F17D0C03F17C044FEACC00C8E5083BBE
:104418009B444FF0000AABEB020BB4E604F1080131
:104428003046FFF7A5F9BC68D9F804106368CFE6F1
:1044380040F254518B420BD8930C03F17D01C90013
:104448007C33F7E64FF47E704FF07F0C7E24A7E5AF
:104458004FF47E717E23EDE67B6871E770B582B01C
:104468000546069C42B10C4E0094D6F8E460B0476D
:10447800431C0BD002B070BD074B1146D3F8E46063
:10448800064A01230094B047431CF3D100228A2333
:1044980022602B6002B070BD30040020D4FE0008FA
:1044A80070B5114C82B025681C4669B194460A461D
:1044B80001460E4800946346D0F8E4602846B047A9
:1044C800431C0BD002B070BD084A0123D2F8E46047
:1044D8002846074A0094B047431CF3D100228A2398
:1044E80022602B6002B070BD000000203004002064
:1044F800D4FE000810B4034CD4F8E440A44610BC21
:10450800604700BF3004002082B049B15AB16BB196
:1045180013780B601278101E18BF012002B0704784
:1045280001A9002AF3D1104602B070476FF00100CC
:10453800F4E700BF5FFA81FC810710D00346511EE3
:104548002AB90AE09A0718460AD0013905D318464D
:1045580013F8012B6245F5D17047002070471146CA
:1045680003290CD80029F8D00346014401E08B4206
:10457800F3D0184613F8012B6245F8D1ECE7024650
:1045880010B54CEA0C2444EA04441046036804328B
:104598006340A3F1013E2EEA030313F0803F04D1E8
:1045A800043903291046F0D851B10346014401E00B
:1045B8008B4205D0184613F8012B6245F8D110BD7F
:1045C800002010BD032A10B516D940EA010C1CF0D2
:1045D800030F04460B4622D119462046D1F800E0C5
:1045E800D0F800C00433F44504F1040417D1043AA8
:1045F800032A20461946EFD8541EA2B100F1FF3C09
:10460800013901E0C3180CD01CF801EF11F8012F93
:10461800A4EB0C039645F5D0AEEB020010BD541E7A
:10462800ECE7184610BD104610BD00BF844641EAAD
:10463800000313F0030349D1403A23D30B68036006
:104648004B6843608B688360CB68C3600B69036108
:104658004B6943618B698361CB69C3610B6A0362F0
:104668004B6A43628B6A8362CB6AC3620B6B0363D8
:104678004B6B43638B6B8363CB6BC36340304031BD
:10468800403ADBD230320BD30B6803604B6843608F
:104698008B688360CB68C36010301031103AF3D256
:1046A8000C3205D351F8043B40F8043B043AF9D2E4
:1046B800043208D0D2071CBF11F8013B00F8013BB7
:1046C80001D30B8803806046704700BF082A13D3C4
:1046D8008B07B1D010F00303AED0C3F10403D21A94
:1046E800DB071CBF11F8013B00F8013BA4D331F8EC
:1046F800023B20F8023B9FE7043AD9D3013A11F86C
:10470800013B00F8013BF9D20B7803704B784370FA
:104718008B7883706046704788420DD98B18834226
:104728000AD900EB020CBAB1624613F801CD9942DE
:1047380002F801CDF9D170470F2A0ED8034602F1CD
:10474800FF3C4AB10CF1010C013B8C4411F8012BE0
:10475800614503F8012FF9D1704740EA01039B072F
:104768004FD1A2F1100370B501F1200C23F00F0511
:1047780001F1100E00F11004AC441B095EF8105C46
:104788000EF1100E44F8105C5EF81C5C103444F80E
:104798001C5C5EF8185C44F8185C5EF8145CE6452E
:1047A80044F8145CEAD1013312F00C0F01EB031149
:1047B80002F00F0400EB031327D08E46043C24F0CC
:1047C80003064FEA940C1E441C1F5EF8045B44F871
:1047D800045FB442F9D10CF1010402F0030203EBC7
:1047E800840301EB840102F1FF3C4AB10CF1010C96
:1047F800013B8C4411F8012B614503F8012FF9D1D5
:1048080070BD034602F1FF3C9CE72246EBE700BF80
:10481800704700BF704700BF38B5C36C05460C46EB
:104828004BB153F8240080B1026843F824200023D8
:10483800C0E9033338BD2122042105F041FF0346B6
:10484800E8640028EDD1002038BD0121284601FA8E
:1048580004F56A1D920005F033FF0028F3D0C0E983
:104868000145E4E731B1C36C4A6853F82200086097
:1048780043F82210704700BF2DE9F0414FF0000EB9
:104888000E461C460D69074601F1140001680EF139
:10489800010E8BB202FB0343090C4FEA134C02FBD7
:1048A80001CC9BB203EB0C43754540F8043B4FEA3F
:1048B8001C44EBDC3CB1B368AB4207DD06EB850377
:1048C80001355C6135613046BDE8F0817168384674
:1048D8000131FFF7A1FF8046A8B1326906F10C014A
:1048E800023292000C30FFF7A1FEFB6C726853F89D
:1048F8002210316043F82260464606EB85030135F5
:104908005C613561DFE70246B521024B024805F0DC
:10491800B1FE00BFF4FE00084CFF00082DE9F84383
:104928001E46DFF8A0C0174603F108028CFB023CC4
:10493800092E4FEAE27305460C46C3EB6C0339DDDA
:104948004FF0010C00214FEA4C0C634501F10101C5
:10495800F9DC2846FFF760FF014668B3089B092F7A
:1049680043614FF00103036112DC09270A34BE4298
:104978000BDDF61B264414F8013B0A222846303B7F
:10498800FFF77AFFA6420146F5D10846BDE8F8834D
:1049980004F10909C8463C4418F8013B0A22284694
:1049A800303BFFF769FFA0450146F5D1A7F10804A0
:1049B8004C44DCE70021CCE70246CE21024B0348F9
:1049C80005F058FE398EE338F4FE00084CFF000865
:1049D800020C12040346CAB91020834013F07F4F1B
:1049E80004BF1B02083013F0704F04BF1B010430D2
:1049F80013F0404F04BF9B000230002B05DB13F07F
:104A0800804F00F1010008BF202070470020E5E733
:104A18000368024613F0070009D0D9071FD4980786
:104A28004BBF5B089B08012002201360704799B2B6
:104A380009B91020C340D9B209B908301B0A1907AF
:104A480004BF1B090430990704BF9B080230D9072B
:104A580003D45B0800F1010003D013607047002005
:104A680070472020704700BF38B5C36C04460D4618
:104A78004BB15868B0B102685A6000220123456101
:104A8800C0E9032338BD2122042105F019FE03469D
:104A9800E0640028EDD100224FF4A071074B0848CC
:104AA80005F0E8FD1C220121204605F009FE00283A
:104AB800F1D001220223C0E90123DEE7F4FE000859
:104AC8004CFF00082DE9F04F0E6915698846AE4283
:104AD800144685B005DB2A46234635460C4616465D
:104AE8009846A3686168AF19BB42B8BF0131FFF7A8
:104AF80093FE0190002800F08780019B03F11409C0
:104B080009EB870AD14505D24B46002243F8042B0E
:104B18009A45FBD808F1140808EB860B04F1140336
:104B2800D8451A4603EB85055FD22B1B153B23F0AE
:104B3800030304331534A54238BF0423CDE902A783
:104B4800AC461F46924605E0000C29D1C34509F141
:104B5800040948D958F8040B85B2002DF4D05646FC
:104B68004C46002356F8040B216882B21FFA81FED6
:104B780005FB02EE000C0A0C05FB0022734402EB55
:104B880013429BB243EA0243B44544F8043B4FEA5C
:104B98001243E7D849F8073058F8040C000CD5D070
:104BA800D9F80030544619464D4600222688090C8B
:104BB80000FB06119BB20A4443EA024345F8043B52
:104BC80054F8046B2968360C8BB200FB0633A445F5
:104BD80003EB12434FEA1342E8D8C34549F80730BC
:104BE80009F10409B6D8DDE902A7002F02DC05E0C7
:104BF800013F03D05AF8043D002BF9D0019B184619
:104C08001F6105B0BDE8F08F024640F25D11024B0E
:104C1800024805F02FFD00BFF4FE00084CFF000815
:104C280012F003032DE9F041144607462ED10E4633
:104C3800A4101CD0BD6C95B3E3074FF0000806D450
:104C4800641014D02868A8B10546E307F8D52A46A9
:104C580031463846FFF736FFB6B17168FB6C641011
:104C680053F82120326043F821600646EAD13046E5
:104C7800BDE8F0812A4629463846FFF723FF286019
:104C88000546C0F80080E0E70646D9E70F4A013B31
:104C980052F823200023FFF7EFFD0646C8E701215D
:104CA8003846FFF7B9FD054640B140F271230122AD
:104CB800C0E904230023B8640360BDE702464FF44B
:104CC800A071034B034805F0D5FC00BF70FB00083A
:104CD800F4FE00084CFF00082DE9F0470C46266951
:104CE800A36806EB6216751C9D4290460746496804
:104CF8004FEA621904DD5B009D4201F10101FADC13
:104D08003846FFF789FD002851D0B9F1000F00F1AE
:104D180014010FDD0B464FF0000C09F105024FEAB4
:104D2800820E00EB820243F804CB9342FBD1AEF132
:104D380014031944226904F1140318F01F0803EB43
:104D4800820C2CD08E464FF0000AC8F120091A6850
:104D580002FA08F242EA0A024EF8042B53F8042B2E
:104D68009C4522FA09FAF2D8ACEB0403153B23F070
:104D78000303043304F11502944538BF0423BAF140
:104D8800000F18BF2E4641F803A0FB6C626806614D
:104D980053F82210216043F82240BDE8F087043917
:104DA80053F8042B9C4541F8042FF9D8EDE7024647
:104DB80040F2D911014B024805F05CFCF4FE0008F2
:104DC8004CFF000884460B690069C01A15D10CF124
:104DD800140C14310CEB830210B401EB830301E0D3
:104DE800944508D252F8044D53F8041D8C42F7D06C
:104DF80004D24FF0FF3010BC70477047012010BC40
:104E0800704700BF2DE9F84F0C6913698946E41A09
:104E1800002C17467DD101F11406143202EB8302EF
:104E280006EB830301E09E4276D253F8045D52F804
:104E3800041D8D42F7D067D3D9F80410FFF7ECFCB6
:104E4800002873D0D9F81050C46000F11404264625
:104E58004FF0000A3B6909F1140807F1140E09F133
:104E6800100C08EB85020EEB83095CF804BF5EF8B2
:104E7800041B1FFA8BF353441FFA81FA090CA3EBA6
:104E88000A03C1EB1B4101EB23419BB243EA0143F7
:104E9800F14546F8043B4FEA214AE6D8A9EB070159
:104EA80015391537B94521F0030606F1040638BF50
:104EB800042621F0030138BF0021B04442452644AE
:104EC8000C4418D93746444654F8041B8BB2534453
:104ED8004FEA234A0AEB11419BB243EA0143A2423B
:104EE80047F8043B4FEA214AEED8541EA4EB0804C5
:104EF80024F00304344423B954F8043D013D002B45
:104F0800FAD00561BDE8F88F4B460124B9461F4623
:104F180092E7F9DB00248FE70021FFF77DFC60B101
:104F280001220023C0E90423BDE8F88F02464FF4AC
:104F38001071054B054805F09DFB024640F23221F1
:104F4800014B024805F096FBF4FE00084CFF0008F0
:104F58000F4B0B40A3F15073002B02DD00201946C4
:104F680070475B42B3F1A07F4FEA235205DA4FF452
:104F78000023002043FA02F17047143A1E2AD6BFD4
:104F88004FF00043012223FA02F200211046704735
:104F98000000F07F2DE9F041076900F1140606EBE7
:104FA80087070C4657F8041CA7F104080846FFF7C2
:104FB8000FFDC0F120030A28236036DD46451ED2C6
:104FC800B0F10B0357F8082C26D0C3F1200C9940F8
:104FD80022FA0CF00843A7F1080140F07F558E42F1
:104FE80045F440153AD202FA03F057F80C3C23FA7C
:104FF8000CF303431C4620462946BDE8F081B0F176
:105008000B0308D001FA03F0002340F07F551C463B
:1050180045F44015EFE71A46144641F07F5545F42C
:10502800401520462946BDE8F081C0F10B0321FA5E
:1050380003F2464542F07F552CBF002257F8082C52
:1050480045F4401538BFDA4000F1150301FA03F3BF
:1050580043EA020420462946BDE8F08102FA03F338
:105068001C46C8E770B5012182B016461D46FFF7F9
:10507800D3FB044600284CD02B46C5F30A55C3F38E
:1050880013030DB143F48013002E019322D0684618
:105098000096FFF7BDFC002837D0019B0099C0F1AE
:1050A800200203FA02F20A43C34001936261002B13
:1050B80014BF02210121A3612161B5B1069BA5F2AC
:1050C800334505441D60079BC0F135001860204634
:1050D80002B070BD01A8FFF79BFC0123019A194695
:1050E800626120302361002DE8D104EB8102A0F237
:1050F80032431069069A1360FFF76AFCC0EB41114E
:105108002046079B196002B070BDDDE9002362618B
:10511800CDE7024640F20A31014B024805F0AAFAEF
:10512800F4FE00084CFF00082DE9F04383B08846E0
:1051380069468146FFF72EFF04460D46404601A901
:10514800FFF728FFD9F81030D8F810200F469A1A20
:10515800DDE90063F31A03EB4213002B0CDD05EBCA
:10516800035906464D4632463B462046294607F037
:1051780065F903B0BDE8F083C3EB033301EB0351DA
:1051880006460F46EFE700BF172870B506460ADD4A
:10519800002000240749084D22462B4607F024F832
:1051A800013EF9D170BD054B03EBC006D6E90401F9
:1051B80070BD00BF0000F03F0000244070FB0008F5
:1051C80001F1FF3C116902F114034FEA6C1C03EB77
:1051D80081010CF1010C8B4200EB8C0C16D210B53E
:1051E800A0F1040E53F8044B99424EF8044FF9D835
:1051F8008B1A153B23F0030304331844844504D960
:10520800002340F8043B8445FBD810BD844505D9EC
:10521800002340F8043B8445FBD87047704700BF23
:1052280003694A11934200F1140009DA00EB830381
:1052380002E053F8042DC2B98342FAD8002070471F
:1052480010DD11F01F010DD010B450F8224000EB12
:10525800820324FA01F202FA01F18C420BD00120F8
:1052680010BC704700EB8203E6E70120704753F853
:10527800042D002AF3D18342F9D8002010BC7047CE
:1052880038B50C46114600228446074D20462A6050
:105298001A46644607F0C8FF431C00D038BD2B6887
:1052A800002BFBD0236038BD0C0A00202DE9F84FF5
:1052B8001646002900F0988006F10B0580460C463A
:1052C800FFF7A6FA162D5DD810252A46AE425ED8FD
:1052D80054F8041CA4F1080921F00307974262DA84
:1052E800BC4B09EB0700D3F808C0844500F0978051
:1052F800D0F804C02CF0010303445B68DB0768D4D2
:105308002CF0030C07EB0C03934247DACB0710D4BD
:1053180054F8083CA9EB030ADAF8043023F0030137
:105328008C44BC44944580F211817B18934280F2EE
:10533800E88031464046FEF7EBFD0646E0B154F8FA
:10534800043CA0F1080223F001034B44934200F00F
:10535800D2803A1F242A00F2F580132A00F2AC808A
:1053680003462246116819605168596092689A602C
:1053780021464046FEF7FCF94046FFF74BFA304617
:10538800BDE8F88F25F00705002D2A469EDA0C2384
:105398000026C8F800303046BDE8F88F1F46D0E92F
:1053A8000223D3609A607B1B0F2B22D8D9F80430D4
:1053B80003F001033B43C9F804304F447B6843F0D2
:1053C80001037B6026464046FFF724FA3046BDE8D5
:1053D800F88FC907ADD454F8083CA9EB030ADAF8EA
:1053E800041021F00301A0E71146BDE8F84FFEF7CD
:1053F8008FBDD9F8041043F0010301F001012943DE
:10540800C9F8041009EB05014B604F447B6840461E
:1054180043F0010308317B60FEF7AAF9D2E7DCF814
:10542800040020F0030B07EB0B0C05F1100084457A
:105438004DDAC9073FF57DAF54F8081CA9EB010AFE
:10544800DAF8041021F003018B44BB4458453FF7B8
:105458006CAF5646DAF80C1056F8080F3A1F242A93
:10546800C160886000F2DB80132A40F2D680216890
:105478001B2ACAF808106168CAF80C1000F2E0800C
:1054880008340AF110022168116061685160A1684E
:105498009160ABEB05020AEB050142F0010299604D
:1054A8004A60DAF80430404603F001031D43CAF8A5
:1054B8000450FFF7AFF96EE723681B2A036063689F
:1054C800436068D804F1080200F108034AE709EBD1
:1054D8000502ACEB050C9A604CF00103536054F8DC
:1054E800043C404603F001031D4344F8045CFFF705
:1054F80091F926464FE750F8043C23F003031F4474
:1055080051E75646DAF80C1056F8080F3A1F242AC5
:10551800C16088604CD8132A48D921681B2ACAF868
:1055280008106168CAF80C1056D808340AF110023D
:105538001F462368D146136063685360A3683446E6
:10554800936030E72146FFF7E7F811E75646D0E9C0
:105558000213CB60996056F8081FDAF80C303A1F2E
:10556800242ACB6099602DD8132A29D923681B2AAD
:10557800CAF808306368CAF80C3042D808340AF10F
:105588001003226867461A606268D1465A60A268AA
:1055980034469A6007E7A368242A8360E368C360F7
:1055A80026D004F1100200F11003DBE63246BFE713
:1055B800214630461F46D146FFF7AEF83446F2E69C
:1055C8003346DEE7214630466746D146FFF7A4F862
:1055D8003446E8E69C050020A168242ACAF8101081
:1055E800E168CAF8141020D010340AF118029FE7B5
:1055F800236904F1180203616369436100F1180328
:10560800B0E6A368242ACAF81030E368CAF8143050
:1056180022D010340AF11803B3E7324633E72146A3
:105628003046FFF779F8174B33E722691834CAF880
:10563800182054F8042CCAF81C200AF1200277E735
:10564800A168242ACAF81010E168CAF814100ED00C
:1056580010340AF1180216E723691834CAF818300A
:1056680054F8043CCAF81C300AF1200389E722697F
:105678001834CAF8182054F8042CCAF81C200AF167
:10568800200200E79C050020002238B5064D04469C
:1056980008462A6007F0F2FD431C00D038BD2B688D
:1056A800002BFBD0236038BD0C0A0020F0B50D7824
:1056B80004465E2D21D00022964601F1010C631E9E
:1056C80004F1FF0103F8012F8B42FBD195B1E643AA
:1056D8008EF0010262550CF1010E1EF8013C704675
:1056E8002D2B10D05D2B04D013B11D46F446F1E7E5
:1056F8006046F0BD0CF1FF30F0BD01224D789646B2
:1057080001F1020CDBE79CF801005D28EDD0854231
:10571800EBDC6F1C0CF1020CE31903F8012BF118F8
:105728008842FADC431B013B8542A8BF00230EF1E7
:10573800020EDD19D1E700BF004870470000C07FA6
:105748000CB430B50C466FF000459DB00A4A20AB4A
:10575800059253F8042B02A9CDE901340795049565
:10576800069402F0CBFD0022029B1A701DB0BDE822
:10577800304002B0704700BF0802FFFF0EB430B5DA
:1057880004466FF000459CB00B4A1FAB0B490592CD
:1057980053F8042B086802A9CDE90134079504954C
:1057A800069402F0ABFD0022029B1A701CB0BDE803
:1057B800304003B0704700BF0802FFFF0000002020
:1057C80011F0FF01034644D0820732D110B50468B6
:1057D80041EA012E4EEA0E4E8EEA0402A2F101338E
:1057E80023EA0203A4F1013222EA0402134313F06C
:1057F800803F0FD150F8044F84EA0E0CA4F1013316
:10580800ACF1013223EA040322EA0C02134313F039
:10581800803FEFD0037823B936E010F8013F002B22
:1058280032D09942F9D110BD8A4211D09A07184650
:10583800CCD0184613F8012B002AF5D11046704732
:105848009907184607D0184602780133002AF7D17D
:1058580070478207F7D10268A2F1013323EA0203F5
:1058680013F0803F08D150F8042FA2F1013323EA46
:10587800020313F0803FF6D00378002BE8D010F82D
:10588800013F002BFBD17047184610BD80EA010C80
:105898001CF0030F37D110F0030C20F0030021F0A7
:1058A800030150F8042B08BF51F8043B0ED08CF0CC
:1058B800030C6FF07F434FEACC0C23FA0CFC51F831
:1058C800043B42EA0C0243EA0C0300BFA2F1013C8C
:1058D8009A4201BF2CEA020C1CF0803F50F8042BBE
:1058E80051F8043BF2D04FEA02604FEA1222012835
:1058F80028BFB0EB036F08BF1B0AF4D003F0FF0307
:10590800000EC01A704710F0030F0AD010F8012BD0
:1059180011F8013B012A28BF9A42F4D0A2EB0300F8
:1059280070474DF8045D50F8042B01F0030521F091
:10593800030151F8043B022D26D04DD822F07F45B3
:10594800B5EB132FA2F1013C2CEA020C0DD11CF08F
:10595800803C08BF51F8043B0AD185EA0205B5EB43
:10596800036F0CD150F8042BE8E74FEA13235BE0F0
:105978003CF07F4C54D10B784FEA126554E04FEA63
:10598800126503F0FF034FE04FEA0245A2F1013C24
:105998004FEA15452CEA020CB5EB134F18D11CF051
:1059A800803C08BF51F8043B07D185EA0205B5EBF6
:1059B800034F09D150F8042BE6E75FEA0C4C2FD1CE
:1059C8000B884FEA12452FE04FEA03434FEA12458E
:1059D8004FEA134328E000BF02F0FF05B5EB136F51
:1059E800A2F1013C2CEA020C0DD11CF0803C08BF4E
:1059F80051F8043B0AD185EA0205B5EB032F0AD119
:105A080050F8042BE8E74FEA13630DE012F0FF0F9C
:105A180006D051F8043B4FEA122523F07F4303E0F8
:105A28004FF0000020BC704705F0FF0203F0FF00B4
:105A3800012828BF904204BF2D0A1B0AF4D0A2EB0C
:105A4800000020BC704700BF71B1034600EB010C99
:105A580001E0634506D01A46117801330029F8D1D0
:105A6800101A7047181A704708467047000000005F
:105A78002DE9F04F002582469748A1B00068884676
:105A880007921C4608901C95FBF71CF900218346D9
:105A980000204246CDE90401CDF86C80174612F883
:105AA800013B2D2B2FD8DFE813F0A0002E002E008D
:105AB8002E002E002E002E002E002E00AD00AD0070
:105AC800AD00AD00AD002E002E002E002E002E00E1
